:020000040800F2
:1000000000000220350C00087D0B00087F0B000863
:10001000810B0008830B0008850B0008000000001E
:10002000000000000000000000000000B1220008F5
:10003000870B00080000000051230008B5230008CA
:10004000850C0008850C0008850C0008850C00084C
:10005000850C0008850C0008850C0008850C00083C
:10006000850C0008850C0008850C0008850C00082C
:10007000850C0008850C0008850C0008850C00081C
:10008000850C0008850C0008850C0008890B000809
:10009000990B0008850C0008850C0008850C0008E9
:1000A000850C0008850C0008850C0008850C0008EC
:1000B000850C0008850C0008850C0008850C0008DC
:1000C000850C0008850C0008850C0008850C0008CC
:1000D000850C0008850C0008850C0008850C0008BC
:1000E000850C0008850C0008850C0008850C0008AC
:1000F000850C0008A90B0008850C0008850C000879
:10010000850C0008850C0008850C0008850C00088B
:10011000850C0008850C0008850C0008850C00087B
:10012000850C0008850C0008850C0008850C00086B
:10013000850C0008850C0008850C0008850C00085B
:10014000850C0008850C0008850C0008850C00084B
:10015000850C0008850C0008850C0008850C00083B
:10016000850C0008850C0008850C0008850C00082B
:10017000850C0008850C0008850C000800000000B4
:08018000850C0008850C000845
:1001A00053B94AB9002908BF00281CBF4FF0FF31DE
:1001B0004FF0FF3000F0E2B8ADF1080C6DE904CE6D
:1001C00003F0C8FCDDF804E0DDE9022304B0704769
:1001D00000F1340191E838009C46A6464CF8045DD5
:1001E00090E8FF0FE54600BD90EC210B704700BF83
:1001F00080EC210B704700BF90EC200B704700BFD4
:1002000080EC200B704700BFD0EC200B704700BF84
:10021000C0EC200B704700BFF0EC0201F0EC0211C3
:10022000F0EC0221F0EC0231F0EC0241F0EC025172
:10023000F0EC0261F0EC0271F0EC0281F0EC029162
:10024000F0EC02A1F0EC02B1F0EC02C1F0EC02D152
:10025000F0EC02E1F0EC02F1704700BFE0EC0201CB
:10026000E0EC0211E0EC0221E0EC0231E0EC0241B2
:10027000E0EC0251E0EC0261E0EC0271E0EC0281A2
:10028000E0EC0291E0EC02A1E0EC02B1E0EC02C192
:10029000E0EC02D1E0EC02E1E0EC02F1704700BFDB
:1002A000B0FC0181B0FC0191B0FC01A1B0FC01B136
:1002B000704700BFA0FC0181A0FC0191A0FC01A13E
:1002C000A0FC01B1704700BFEC4600B52DE900501D
:1002D0002DE9FF1F4FF000032DE90C0001A903F0E9
:1002E000F3FEDDF840E012B0704700BFEC4600B509
:1002F0002DE900502DE9FF1F4FF000032DE90C0000
:1003000001A903F01DFFDDF840E012B0704700BF07
:10031000EC4600B52DE900502DE9FF1F4FF000031A
:100320002DE90C0001A903F02DFFDDF840E012B02B
:10033000704700BFEC4600B52DE900502DE9FF1FC6
:100340004FF000032DE90C0001AB03F0F1FEDDF8E6
:1003500040E012B0704700BFEC4600B52DE90050F8
:100360002DE9FF1F4FF000032DE90C0001AA03F057
:1003700061FFDDF840E012B0704700BF704700BF7A
:1003800002780B78012A28BF9A4240F0D8806DE9A4
:10039000044540EA0104CDE902676FF0000C4FEA22
:1003A00044721AB380EA010414F0070F6BD100F015
:1003B000070420F0070004F0030521F007014FEACD
:1003C000C505F0E8042314F0040FF1E804670CFA03
:1003D00005F462EA040266EA04060BD063EA040349
:1003E000624667EA0407664604E000BFF0E80423BB
:1003F000F1E8046782FA4CF582EA0604A4FA8CF468
:100400006CBB83FA4CF583EA0705A5FA8CF595B920
:1004100050E9022351E9026782FA4CF582EA0604A8
:10042000A4FA8CF483FA4CF583EA0705A5FA8CF557
:100430002543DBD09CB92DBAB5FA85F424F0070426
:1004400027FA04F1DDE9026723FA04F303F0FF0061
:1004500001F0FF01FDE80445A0EB0100704724BA5C
:10046000B4FA84F424F0070426FA04F1DDE9026703
:1004700022FA04F202F0FF0001F0FF01FDE804455A
:10048000A0EB0100704714F0030F3CD110F00304FF
:1004900028D150F8082B51F8083B82FA4CF582EA33
:1004A0000305A5FA8CF55DB950F8042C51F8043C0D
:1004B00082FA4CF582EA0305A5FA8CF5002DE8D006
:1004C0002DBAB5FA85F424F0070423FA04F122FAD0
:1004D00004F202F0FF0001F0FF01FDE80445A0EB8B
:1004E000010070474FEAC40420F0030050F8082BC5
:1004F00021F0030151F8083B0CFA04F462EA04020B
:1005000063EA0403C9E710F003041DD0A1EB040162
:1005100020F00300E40750F8042B06D012D28B78A9
:100520005FFAA2F4E41A06D12BB1CB785FFAB2F4E9
:10053000E41A00D133B920465DF8104B7047A2EBA6
:100540000300704701F1040150F8042BCC0721F09F
:10055000030151F8043B48D824D222F07F4482FAA8
:100560004CF594EA1325A5FA8CF50AD165B951F832
:10057000043B84EA0204B4EB036F0ED150F8042B61
:10058000EBE74FEA132355E035F07F454DD108786E
:10059000FDE80445C0F1000070474FEA126203F025
:1005A000FF0347E002EA1C4482FA4CF594EA134543
:1005B000A5FA8CF50AD165B951F8043B84EA020426
:1005C000B4EB034F0CD150F8042BEBE74FEA134385
:1005D00030E015EA1C4528D10B884FEA124229E089
:1005E0004FEA124203EA1C4324E002F0FF0482FABD
:1005F0004CF594EA1365A5FA8CF50AD165B951F862
:10060000043B84EA0204B4EB032F09D150F8042B15
:10061000EBE74FEA13630DE015F0FF0F05D10B6810
:100620004FEA122223F07F4304E04FF00000FDE880
:100630000445704712BA1BBA82FA4CF482EA0304EA
:10064000A4FA8CF5B5FA85F402FA04F203FA04F37D
:100650004FEA1260FDE80445A0EB1360704700BF4D
:10066000844641EA000313F003036DD1403A41D3BD
:1006700051F8043B40F8043B51F8043B40F8043B7C
:1006800051F8043B40F8043B51F8043B40F8043B6C
:1006900051F8043B40F8043B51F8043B40F8043B5C
:1006A00051F8043B40F8043B51F8043B40F8043B4C
:1006B00051F8043B40F8043B51F8043B40F8043B3C
:1006C00051F8043B40F8043B51F8043B40F8043B2C
:1006D00051F8043B40F8043B51F8043B40F8043B1C
:1006E00051F8043B40F8043B51F8043B40F8043B0C
:1006F000403ABDD2303211D351F8043B40F8043BAC
:1007000051F8043B40F8043B51F8043B40F8043BEB
:1007100051F8043B40F8043B103AEDD20C3205D3BB
:1007200051F8043B40F8043B043AF9D2043208D0B3
:10073000D2071CBF11F8013B00F8013B01D30B8825
:1007400003806046704700BF082A13D38B078DD003
:1007500010F003038AD0C3F10403D21ADB071CBFD5
:1007600011F8013B00F8013B80D331F8023B20F83F
:10077000023B7BE7043AD9D3013A11F8013B00F878
:10078000013BF9D20B7803704B7843708B78837000
:10079000604670470348044B834202D0034B03B1C9
:1007A0001847704774050020740500200000000001
:1007B0000548064B1B1AD90F01EBA301491002D0C3
:1007C000034B03B1184770477405002074050020DF
:1007D0000000000010B5064C237843B9FFF7DAFF9C
:1007E000044B13B10448AFF300800123237010BD04
:1007F00074050020000000002451000808B5054BD6
:100800001BB105490548AFF30080BDE80840FFF77C
:10081000CFBF00BF00000000780500202451000871
:1008200008B50D480D4B036003234360002383602C
:10083000C3604FF4102202614FF40012426103764C
:1008400043768376C3760377437700F049FA00B99D
:1008500008BD00F0BBF8FBE79005002000640040F5
:1008600010B588B000230393049305930693079370
:1008700002681C4B9A4201D008B010BD00240194BC
:1008800003F5EA331A6C42F000721A641A6C02F033
:1008900000720192019A02941A6B42F008021A63E4
:1008A0001B6B03F008030293029B032303930222B2
:1008B000049206930923079303A90B4800F058FEFE
:1008C00022460521132000F03FFE132000F04CFECD
:1008D00022460521142000F037FE142000F044FECB
:1008E000CAE700BF00640040000C0240034B0360F5
:1008F000034B0B6080231360704700BFB8070020D4
:10090000B805002010B588B00DF1040C074C0FCCD1
:10091000ACE80F0094E807008CE80700002101A86C
:1009200001F0F1FB024B186008B010BD3C5100080B
:100930000C08002030B589B0002403940494059479
:10094000069407940094194B1A6B42F001021A6343
:100950001A6B02F001020092009A01941A6B42F0A5
:1009600008021A631A6B02F008020192019A0294BB
:100970001A6B42F080021A631B6B03F08003029330
:10098000029B0B4D22464FF4E051284600F0E6FE54
:100990004FF4E05303930123049302230593069439
:1009A00003A9284600F0E4FD09B030BD003802403C
:1009B000001C024008B50268034B9A4200D008BDF3
:1009C00000F07CF9FBE700BF0020004072B6FEE7B4
:1009D00000B595B03022002108A804F0FFF80023EC
:1009E000039304930593069307930193204A116C94
:1009F00041F080511164126C02F080520192019A10
:100A000002931C4B1A6842F480421A601B6803F47C
:100A100080430293029B012308934FF48033099390
:100A200002230E934FF480020F9206221092A82206
:100A3000119212930423139308A800F095FE98B91D
:100A40000F23039302230493002305934FF4A05331
:100A500006934FF480530793052103A801F0D4F8BF
:100A600020B915B05DF804FBFFF7B0FFFFF7AEFF4C
:100A7000003802400070004008B500F005F9FFF7AB
:100A8000A7FFFFF757FFFFF7CBFEFFF73BFF01F094
:100A900035FBFEE700B583B0002200920D4B596C88
:100AA00041F480415964596C01F4804100910099EE
:100AB0000192196C41F0805119641B6C03F0805352
:100AC0000193019B0F216FF0010000F03DFD03B089
:100AD0005DF804FB0038024030B589B004460023BD
:100AE0000193214B1A6C42F480721A641B6C03F45C
:100AF00080730193019B02A903A801F04BF9069BA7
:100B0000CBB901F037F90346184AA2FB03239B0C2B
:100B1000013B1748174A026040F2E732C260436067
:100B2000002303618360836101F0B4FA054630B1AC
:100B3000284609B030BD01F01DF94300E4E70C4838
:100B400001F048F905460028F2D12D2000F00CFDF7
:100B50000F2C01D90125EBE7002221462D2000F0C2
:100B6000F3FC054B1C60E3E70038024083DE1B43C7
:100B700010080020002000400C000020FEE7FEE7E7
:100B8000FEE7FEE7FEE7704708B5024800F060FBAD
:100B900008BD00BF9005002008B5024800F058FBD2
:100BA00008BD00BF9005002008B5024801F05AF9C1
:100BB00008BD00BF100800200120704708B504F0F0
:100BC000B5F8162303604FF0FF3008BD08B54FF0AD
:100BD000FF31FFF7F3FFFEE710B503460C4A0D495E
:100BE0000D48006840B10C4800680344521A934213
:100BF00006D8094A136010BD0748084C0460F2E7A4
:100C000004F094F80C2303604FF0FF30F3E700BFCB
:100C1000000002200006000058080020F8480020CC
:100C2000034AD2F8883043F47003C2F88830704722
:100C300000ED00E0DFF834D0FFF7F2FF0C480D497B
:100C40000D4A002302E0D458C4500433C4188C4227
:100C5000F9D30A4A0A4C002301E013600432A2428D
:100C6000FBD304F069F8FFF707FF7047000002208C
:100C70000000002074050020645400087405002062
:100C8000F8480020FEE7000008B50B4B1A6842F454
:100C900000721A601A6842F480621A601A6842F49C
:100CA00080721A60032000F03DFC0F20FFF714FF54
:100CB000FFF7F0FE002008BD003C0240034A116827
:100CC000034B1B780B441360704700BF5C08002087
:100CD00008000020014B1868704700BF5C08002026
:100CE000002800F0A18038B5044690F82030D3B138
:100CF0002268136843F001031360FFF7EBFF05461A
:100D000023685A6812F0010F10D1FFF7E3FF401B70
:100D10000A28F5D9636A43F400336362052384F833
:100D20002030012038BDFFF79BFDE1E71A6822F073
:100D300002021A60FFF7CEFF054623685A6812F0D8
:100D4000020F0DD0FFF7C6FF401B0A28F5D9636AD2
:100D500043F400336362052384F820300120E1E787
:100D6000227E012A3DD01A6822F080021A60637E3A
:100D7000012B3BD02268136823F040031360A37E4D
:100D8000012B39D02268136823F020031360E37E1F
:100D9000012B37D02268136843F010031360237FC0
:100DA000012B35D02268136823F008031360637F9A
:100DB000012B33D02268136823F004031360A36867
:100DC000E268134322691343626913436268013A7C
:100DD00021681343CB6100206062012384F8203036
:100DE000A0E71A6842F080021A60C0E72268136820
:100DF00043F040031360C2E72268136843F0200306
:100E00001360C4E72268136823F010031360C6E779
:100E10002268136843F008031360C8E72268136868
:100E200043F004031360CAE70120704790F82030B4
:100E3000013BDBB2012B05D9436A43F480234362B3
:100E40000120704730B5464BD3F8002242F0010232
:100E5000C3F80022D3F8002222F47C52C3F8002207
:100E6000D3F80022486A42EA0022C3F800224A6905
:100E700002F01F02012000FA02F2D3F81C026FEA0E
:100E8000020C20EA0200C3F81C02CB69C3B9344B40
:100E9000D3F80C020CEA0000C3F80C028C884869F5
:100EA000CD6844EA0544483043F830408C680888EF
:100EB00040EA04404C6904F1480E03EBCE0358604D
:100EC000CB69012B1ED08B69002B33D12448D0F87D
:100ED00004320CEA0303C0F804320B698BBB2048D0
:100EE000D0F814320CEA0303C0F814320B6A012B59
:100EF0002ED01B4AD2F8003223F00103C2F8003290
:100F0000002030BD164BD3F80C021043C3F80C027E
:100F10008C8848690D6844EA0544483043F83040FD
:100F200088894C698D6840EA0540483403EBC40366
:100F30005860C8E70A48D0F804321343C0F80432B6
:100F4000CBE70748D0F814321343C0F81432CDE78A
:100F50000349D1F81C321343C1F81C32C9E700BF62
:100F60000064004070B5044690F82050EDB2012DA9
:100F700006D0436A43F4002343620125284670BD2E
:100F8000022380F820300268136823F00103136005
:100F9000FFF7A0FE064623685B6813F0010F0CD034
:100FA000FFF798FE831B0A2BF5D9636A43F40033DD
:100FB0006362052384F82030E0E700256562DDE701
:100FC00030B590F820C00468A4680CF1FF3C5FFACB
:100FD0008CFCBCF1010F62D814F0E05F59D0C4F36F
:100FE000016C012404FA0CF41C608B68002B3DD1C9
:100FF0000D68CB68046843EA45550CF118031B01E2
:10100000E55003680C690CF1180E03EB0E135C60DD
:101010000B7D012B35D0D17993791B0443EA016311
:10102000517943EA012314790168234301EB0C1140
:10103000C1F88C31D17893781B0443EA016351786D
:1010400043EA0123117802680B4302EB0C12C2F849
:10105000883102680CF1180C4FEA0C1C52F80C3065
:1010600043F0010342F80C3000201DE04C6843EAD5
:10107000C403CC6823430CF11804240105682B51E8
:10108000BFE7036803EB0E13596841F480715960A0
:10109000C1E7436A43F400134362012004E0436A5A
:1010A00043F480234362012030BD90F820C00CF14E
:1010B000FF3C5FFA8CFCBCF1010F00F2A58030B45C
:1010C00051B90468E46814F0030F10D1436A43F483
:1010D0000013436201207EE00468246914F0030FCA
:1010E00005D1436A43F400134362012073E00568AD
:1010F00001F11B0424012C5904F004049460002C19
:101100006BD1056801F11B0424012C59640D146096
:10111000046801F11B0C4FEA0C1C54F80C4004F05D
:101120000204D4600468A444DCF8045015F0080FED
:101130005BD008241461046801F11B0C04EB0C144F
:101140006468C4F307249461046804EB0C146468B5
:10115000240C5461026802EB0112D2F8B8211A7013
:10116000026802EB0112D2F8B821C2F307225A70CA
:10117000026802EB0112D2F8B821C2F307429A705A
:10118000026802EB0112D2F8B821120EDA7002687E
:1011900002EB0112D2F8BC211A71026802EB0112B3
:1011A000D2F8BC21C2F307225A71026802EB011285
:1011B000D2F8BC21C2F307429A71026802EB011215
:1011C000D2F8BC21120EDA71C1B90268D36843F0BB
:1011D0002003D360002030BC7047056801F11B0478
:1011E00024012C59E408546092E701F11B0504EB3B
:1011F0000514646804F00F0414619CE70268136925
:1012000043F020031361E5E7436A43F4802343621C
:101210000120704790F82030013BDBB2012B05D94B
:10122000436A43F480234362012070470268536994
:101230000B435361002070477047704770477047F9
:1012400070477047704770477047704770477047E6
:101250002DE9F84F054603685C69D3F804809F6860
:10126000D3F80CA0D3F81090D3F818B014F00106FE
:101270003BD017F0010616D001229A6017F0020F3A
:1012800008D117F0040F0CD117F0080606D04FF460
:10129000805608E0FFF7D0FF002604E0FFF7CFFFFD
:1012A00001E04FF4006617F4807F0DD02B684FF4F7
:1012B00080729A6017F4007F40F0968017F4806F78
:1012C00000F0968046F4005617F4803F0DD02B684E
:1012D0004FF480329A6017F4003F40F0938017F487
:1012E000802F00F0938046F4004614F0080F07D0DA
:1012F0001AF0100F04D046F400762B681022DA6042
:1013000014F0040F03D01AF0080F40F0898014F095
:10131000020F05D02B68DB6813F0030F40F08780C5
:1013200014F0400F07D019F0100F04D046F4806677
:101330002B6810221A6114F0200F02D019F0080F48
:1013400079D114F0100F04D02B681B6913F0030F30
:1013500078D114F4003F02D018F0100F76D114F4B5
:10136000803F02D018F0080F77D114F4004F37D027
:1013700018F0040F31D014F4807F04D01BF0010F5B
:1013800001D046F0010614F4007F04D01BF0020FD8
:1013900001D046F0020614F4806F04D01BF0040F55
:1013A00001D046F0040614F4006F16D01BF0700B49
:1013B00013D0BBF1400F66D056D8BBF1200F5CD0E4
:1013C000BBF1300F5CD0BBF1100F01D146F0080625
:1013D0002A68936923F0700393612B6804225A6092
:1013E000002E56D1BDE8F88F2846FFF726FF6BE7A1
:1013F00017F4006F02D046F4804665E72846FFF7F1
:101400001FFF61E72846FFF719FF6EE717F4002F6B
:1014100002D046F4803668E72846FFF712FF64E7FB
:101420002B680822DA602846FFF70CFF6FE7284692
:1014300001F02AFF74E72B6808221A612846FFF79B
:1014400003FF7EE72846FFF7FEFE82E72B681022A7
:101450005A602846FFF7F9FE81E72B6808225A6098
:101460002846FFF7F3FE80E7BBF1500F0ED0BBF12B
:10147000600FADD146F48076AAE746F01006A7E7E4
:1014800046F02006A4E746F04006A1E746F08006B5
:101490009EE76B6A33436B622846FFF7D8FEA1E7ED
:1014A000002807DB00F01F02400901239340024A95
:1014B00042F82030704700BF00E100E0002808DB60
:1014C0000901C9B200F1604000F5614080F80013E5
:1014D000704700F00F000901C9B2014B1954704761
:1014E00014ED00E000B500F00700C0F1070CBCF1FE
:1014F000040F28BF4FF0040C031D062B0FD9C31E89
:101500004FF0FF3E0EFA0CF021EA000199400EFA6E
:1015100003FE22EA0E0241EA02005DF804FB00230A
:10152000EEE70000074AD36823F4E0631B041B0CBA
:10153000000200F4E060034343F0BF6343F4003370
:10154000D360704700ED00E010B50446054BD86845
:10155000C0F30220FFF7C6FF01462046FFF7AEFFAB
:1015600010BD00BF00ED00E008B5FFF799FF08BD12
:1015700000230F2B00F2E98070B582B065E085682A
:101580004FEA430E032404FA0EF425EA0405CC685E
:1015900004FA0EF42C438460446824EA02044A6886
:1015A000C2F300129A40224342605CE0DC08083437
:1015B00050F8242003F00705AD004FF00F0E0EFA8F
:1015C00005FE22EA0E0E0A69AA4042EA0E0240F81F
:1015D00024205CE0072200E0002202FA0EF22A43F7
:1015E00002345A4D45F82420594A94686FEA0C0297
:1015F00024EA0C054E6816F4801F01D04CEA04055D
:10160000534CA560E46802EA04054E6816F4001F16
:1016100001D04CEA04054E4CE560646802EA04051A
:101620004E6816F4003F01D04CEA0405484C656052
:10163000246822404D6815F4803F01D04CEA040232
:10164000434C226001330F2B7DD801229A400C6855
:1016500004EA020C32EA0404F4D14C6804F00304F6
:10166000013C012C8BD94A6802F00302032A09D0FD
:10167000C4685D000322AA4024EA02048A68AA40E2
:101680002243C2604A6802F00302022A8ED0046834
:101690004FEA430E032202FA0EF224EA02044A68D9
:1016A00002F0030202FA0EF2224302604A6812F4C8
:1016B000403FC7D000220192264A546C44F4804433
:1016C0005464526C02F480420192019A9C08A51C59
:1016D0001E4A52F8255003F0030E4FEA8E0E0F22D9
:1016E00002FA0EF225EA02051B4A90423FF474AF5B
:1016F00002F5806290421AD002F58062904218D0C2
:1017000002F58062904216D002F58062904214D0B9
:1017100002F58062904212D002F58062904210D0B1
:1017200002F5806290423FF455AF082255E701224E
:1017300053E7022251E703224FE704224DE7052237
:101740004BE7062249E702B070BD70470038014000
:10175000003C014000380240000002400AB18161B3
:101760007047090481617047002800F0E08170B57E
:1017700082B00446036813F0010F3BD09F4B9B6877
:1017800003F00C03042B2CD09C4B9B6803F00C0340
:10179000082B21D06368B3F5803F4FD0B3F5A02F5D
:1017A00052D0964B1A6822F480321A601A6822F4DA
:1017B00080221A606368002B50D0FFF78BFA054631
:1017C0008E4B1B6813F4003F14D1FFF783FA401BC4
:1017D0006428F5D90320B1E1884B5B6813F4800FCE
:1017E000D8D0864B1B6813F4003F03D06368002BEE
:1017F00000F09F81236813F0020F54D07F4B9B6849
:1018000013F00C0F3ED07D4B9B6803F00C03082BAC
:1018100033D0E368002B68D0794B01221A60FFF7C0
:1018200059FA0546754B1B6813F0020F54D1FFF7A8
:1018300051FA401B0228F5D903207FE16F4A136853
:1018400043F480331360B5E76C4B1A6842F480228E
:101850001A601A6842F480321A60ABE7FFF73AFA6E
:101860000546664B1B6813F4003FC3D0FFF732FAFE
:10187000401B6428F5D9032060E1604B5B6813F4DA
:10188000800FC6D15D4B1B6813F0020F03D0E368D5
:10189000012B40F05081594A136823F0F803216965
:1018A00043EAC1031360236813F0080F42D0636951
:1018B0006BB3534B0122C3F8802EFFF70BFA05469A
:1018C0004E4B5B6F13F0020F34D1FFF703FA401B4E
:1018D0000228F5D9032031E1484A136823F0F803C0
:1018E000216943EAC1031360DDE7454B00221A601A
:1018F000FFF7F0F90546414B1B6813F0020FD2D0F9
:10190000FFF7E8F9401B0228F5D9032016E13C4B0C
:101910000022C3F8802EFFF7DDF90546374B5B6FD9
:1019200013F0020F06D0FFF7D5F9401B0228F5D9B6
:10193000032003E1236813F0040F77D02F4B1B6CB7
:1019400013F0805F33D1002301932C4B1A6C42F0CB
:1019500080521A641B6C03F080530193019B012594
:10196000284B1B6813F4807F23D0A368012B34D04D
:10197000052B38D0214B1A6F22F001021A671A6F1B
:1019800022F004021A67A368002B3DD0FFF7A2F9EA
:1019900006461A4B1B6F13F0020F46D1FFF79AF958
:1019A000801B41F288339842F3D90320C6E000251A
:1019B000D6E7144A136843F480731360FFF78AF97B
:1019C0000646104B1B6813F4807FCED1FFF782F9D7
:1019D000801B0228F5D90320B0E0084A136F43F0BA
:1019E00001031367CFE7054B1A6F42F004021A6731
:1019F0001A6F42F001021A67C5E700BF00380240C3
:101A00000000474200700040FFF764F90646524B61
:101A10001B6F13F0020F08D0FFF75CF9801B41F237
:101A200088339842F3D9032088E0EDB9A369002BED
:101A300000F08380484A926802F00C02082A51D0D4
:101A4000022B17D0454B00221A66FFF743F90446D4
:101A5000414B1B6813F0007F42D0FFF73BF9001B9E
:101A60000228F5D9032069E03B4A136C23F0805328
:101A70001364DBE7394B00221A66FFF72BF90546A2
:101A8000354B1B6813F0007F06D0FFF723F9401B8E
:101A90000228F5D9032051E0E369226A1343626A00
:101AA00043EA8213A26A5208013A43EA0243E26A15
:101AB00043EA0263284A5360284B01221A66FFF763
:101AC00009F90446244B1B6813F0007F06D1FFF789
:101AD00001F9001B0228F5D903202FE000202DE09A
:101AE00000202BE0012B2BD01B4B5B6803F4800103
:101AF000E269914226D103F03F02216A8A4223D152
:101B0000616A47F6C0721A40B2EB811F1ED103F41E
:101B10004031A26A5208013AB1EB024F18D103F0EA
:101B20007063E26AB3EB026F14D1002006E001207B
:101B30007047012002E0012000E0002002B070BDEB
:101B40000120FBE70120F9E70120F7E70120F5E795
:101B50000120F3E70120F1E700380240000047428E
:101B600008B5264B9B6803F00C03042B41D0082BCF
:101B700041D1224B5A6802F03F025B6813F4800F98
:101B800012D01E4B5968C1F388111D480023A1FBD8
:101B90000001FEF705FB194B5B68C3F301430133FA
:101BA0005B00B0FBF3F008BD144B5868C0F388101D
:101BB0004FEA401CBCEB000C6EEB0E0E4FEA8E138E
:101BC00043EA9C634FEA8C11B1EB0C0163EB0E030B
:101BD000DB0043EA5173C90011EB000C43F1000331
:101BE000990200234FEA8C2041EA9C51FEF7D8FA73
:101BF000D1E70348D7E70348D5E700BF00380240E4
:101C0000001BB7000024F400002800F09B8070B592
:101C10000D4604464F4B1B6803F007038B4208D266
:101C2000CBB24C4A1370136803F007038B4240F0A9
:101C30008B80236813F0020F17D013F0040F04D029
:101C4000454A936843F4E0539360236813F0080F08
:101C500004D0414A936843F4604393603E4A9368DA
:101C600023F0F003A1680B439360236813F0010F86
:101C700032D06368012B21D09A1E012A25D9364A19
:101C8000126812F0020F61D033498A6822F0030211
:101C900013438B60FFF71EF806462F4B9B6803F03B
:101CA0000C036268B3EB820F16D0FFF713F8801BAA
:101CB00041F288339842F0D9032042E0264A126864
:101CC00012F4003FE0D101203BE0234A126812F0F9
:101CD000007FD9D1012034E01E4B1B6803F00703BD
:101CE000AB4207D9EAB21B4B1A701B6803F007031B
:101CF000AB422DD1236813F0040F06D0164A936827
:101D000023F4E053E1680B439360236813F0080F5A
:101D100007D0114A936823F46043216943EAC10361
:101D20009360FFF71DFF0C4B9B68C3F303130B4A33
:101D3000D35CD8400A4B18600A4B1868FEF7CCFEFB
:101D4000002070BD012070470120FAE70120F8E76C
:101D50000120F6E7003C02400038024070510008C4
:101D6000040000200C000020014B1868704700BFE1
:101D70000400002008B5FFF7F7FF044B9B68C3F38E
:101D80008223034AD35CD84008BD00BF003802401C
:101D9000685100080F2303600B4B9A6802F003029E
:101DA00042609A6802F0F00282609A6802F4E0529F
:101DB000C2609B68DB0803F4E0530361034B1B68BC
:101DC00003F007030B60704700380240003C0240FC
:101DD0007047000090F83D30DBB2012B37D1022371
:101DE00080F83D300268D36843F00103D360036894
:101DF000194A934220D0B3F1804F1DD0A2F57C4206
:101E0000934219D002F58062934215D002F58062A8
:101E1000934211D002F5784293420DD002F57052F0
:101E2000934209D0A2F59432934205D01A6842F049
:101E300001021A60002070479A6802F00702062A21
:101E400007D01A6842F001021A6000207047012092
:101E500070470020704700BF000001407047704786
:101E60007047704770B504460368DE681D6915F059
:101E7000020F10D016F0020F0DD06FF002021A619F
:101E80000123037703689B6913F0030F5ED0FFF70C
:101E9000E6FF0023237715F0040F12D016F0040F8D
:101EA0000FD023686FF004021A610223237723689E
:101EB0009B6913F4407F4FD02046FFF7D0FF0023EB
:101EC000237715F0080F12D016F0080F0FD02368F3
:101ED0006FF008021A61042323772368DB6913F08B
:101EE000030F40D02046FFF7BAFF0023237715F0F9
:101EF000100F12D016F0100F0FD023686FF01002E1
:101F00001A61082323772368DB6913F4407F31D0FB
:101F10002046FFF7A4FF0023237715F0010F02D01E
:101F200016F0010F2DD115F0800F02D016F0800FA2
:101F30002FD115F0400F02D016F0400F31D115F01F
:101F4000200F02D016F0200F33D170BDFFF786FFAF
:101F50002046FFF785FF9CE72046FFF77FFF2046DE
:101F6000FFF77EFFABE72046FFF778FF2046FFF73D
:101F700077FFBAE72046FFF771FF2046FFF770FFB3
:101F8000C9E723686FF001021A612046FEF712FDCF
:101F9000C9E723686FF080021A61204600F0A7F8B5
:101FA000C7E723686FF040021A612046FFF759FF28
:101FB000C5E723686FF020021A61204600F096F80A
:101FC000C3E700000368324A904212D0B0F1804F5C
:101FD0000FD0A2F57C4290420BD002F58062904275
:101FE00007D002F58062904203D002F57842904219
:101FF00003D123F070034A681343254A90422AD044
:10200000B0F1804F27D0A2F57C42904223D002F558
:10201000806290421FD002F5806290421BD002F590
:102020007842904217D002F57052904213D002F5D8
:10203000806290420FD002F5806290420BD0A2F5F0
:102040009832904207D002F58062904203D002F5A8
:102050008062904203D123F44073CA68134323F093
:1020600080034A6913438A68C2620A688262084A26
:10207000904203D002F58062904201D10A69026366
:10208000026842F00402026001224261036070476C
:102090000000014040B310B5044690F83D30F3B164
:1020A000022384F83D30214651F8040BFFF78AFFE4
:1020B000012384F8463084F83E3084F83F3084F8B9
:1020C000403084F8413084F8423084F8433084F85A
:1020D000443084F8453084F83D30002010BD80F84D
:1020E0003C30FFF775FEDBE7012070477047704713
:1020F000842801D0033070470020704708B500F0F5
:102100002FFD002008BD2DE9F04387B00E4644693D
:10211000C4B18569B5B14768D0F80080D0F8109097
:10212000B0F90800FFF7E4FF0295019400903346F0
:102130004A464146384600F0A5FC0590059807B090
:10214000BDE8F083446805680769B0F90800FFF747
:10215000CFFF05AB019300903346BAB22946204623
:1021600000F0CBFC0128E9D00020E8E708B500B971
:10217000012000F03FFE002008BD00F1080343608D
:102180004FF0FF328260C360036100230360704739
:1021900000230361704743684B609A688A6051600E
:1021A00099600861036801330360704730B40D68BB
:1021B000B5F1FF3F11D000F108031C465B681A68B7
:1021C000AA42FAD963684B6099608C6061600861CB
:1021D00003680133036030BC70470469F2E70369A8
:1021E000416882688A60416851605A68824206D0BC
:1021F000002202611A68013A1A6018687047826802
:102200005A60F5E782B0002301930D4B1B68B3F1D0
:10221000FF3F08D04FF0500383F31188BFF36F8F57
:10222000BFF34F8FFEE74FF0500383F31188BFF3E6
:102230006F8FBFF34F8F019B002BFCD002B0704714
:102240001000002008480068006880F308884FF0FC
:10225000000080F3148862B661B6BFF34F8FBFF3FE
:102260006F8F00DF00BF000008ED00E0DFF80C001A
:10227000016841F4700101607047000088ED00E0E2
:102280004FF0807340F8043C21F0010140F8081C35
:10229000054B40F80C3C40F8202C6FF0020340F84E
:1022A000243C4438704700BF0522000800000000AD
:1022B000074B19680868B0E8F04F80F30988BFF34E
:1022C0006F8F4FF0000080F311887047AFF30080EC
:1022D000B04500204FF0500383F31188BFF36F8F98
:1022E000BFF34F8F0B4A136801331360012B00D0EB
:1022F00070474FF0E023D3F8043D13F0FF0FF7D001
:102300004FF0500383F31188BFF36F8FBFF34F8FEC
:10231000FEE700BF10000020094B1B6843B94FF0D7
:10232000500383F31188BFF36F8FBFF34F8FFEE726
:10233000013B034A13600BB983F31188704700BF58
:10234000100000200000000000000000000000005D
:10235000EFF30980BFF36F8F154B1A681EF0100F53
:1023600008BF20ED108A20E9F04F10602DE9090028
:102370004FF0500080F31188BFF34F8FBFF36F8F82
:1023800000F05EFD4FF0000080F3118809BC196871
:102390000868B0E8F04F1EF0100F08BFB0EC108ACC
:1023A00080F30988BFF36F8F704700BFAFF30080E1
:1023B000B045002008B54FF0500383F31188BFF3F8
:1023C0006F8FBFF34F8F00F00DFC28B14FF0E0236B
:1023D0004FF08052C3F8042D002383F3118808BD09
:1023E0004FF0E022002313619361054B1B68054900
:1023F000A1FB03139B09013B536107231361704742
:1024000004000020D34D62104FF0E023D3F8002DDC
:102410003D4B9A421CD04FF0E023D3F8002D3B4BAC
:102420009A421ED030B583B0394B1A78D2B201929D
:10243000FF221A701B78DBB28DF803309DF8033051
:1024400003F05003334A1370334B07221A601BE02A
:102450004FF0500383F31188BFF36F8FBFF34F8F9B
:10246000FEE74FF0500383F31188BFF36F8FBFF384
:102470004F8FFEE7284A1368013B13609DF8033035
:102480005B00DBB28DF803309DF8033013F0800F52
:10249000F0D1214B1B68032B08D04FF0500383F37E
:1024A0001188BFF36F8FBFF34F8FFEE71B021A4AED
:1024B000136003F4E0631360019BDBB2144A1370F2
:1024C0004FF0E024D4F8203D43F47003C4F8203DDD
:1024D000D4F8203D43F07043C4F8203DFFF780FF5F
:1024E00000250E4B1D60FFF7C1FED4F8343F43F0CA
:1024F0004043C4F8343FFFF7A5FE00F0A1FCFFF70E
:1025000081FE284603B030BD71C20F4170C20F4139
:1025100000E400E0640800206008002010000020B3
:10252000124A12F0070F1ED0D11D21F00701C1F58C
:10253000705313440A460E48026000214160134460
:10254000083B23F007030B48036059601960991A90
:1025500051601360084B1960084B1960084B4FF02D
:1025600000421A6070474FF47053E4E78808002077
:10257000800800207C0800207408002078080020D3
:1025800068080020164B1A461B688342FBD351682B
:1025900002EB010C844509D0416800EB010C634556
:1025A00009D00360904219D0106070474068014420
:1025B00051601046F0E710B40A4C2468A3420BD0D7
:1025C0005B681944416013681B680360904200D047
:1025D00010605DF8044B70470460F7E7704700BF78
:1025E000800800207C08002038B5044600F0F2FA8C
:1025F000384B1B68B3B1384B1B681C4250D1002CC0
:1026000050D004F1080214F0070F02D022F00702A4
:102610000832002A55D0314B1B68934253D33049BE
:102620000C6804E0FFF77CFFE5E721461C46636881
:10263000934202D22368002BF7D1264B1B68A3429A
:1026400043D00D68083523680B6063689B1A102B14
:1026500010D9A01810F0070F08D04FF0500383F3E3
:102660001188BFF36F8FBFF34F8FFEE74360626047
:10267000FFF788FF626819490B689B1A0B601949BC
:1026800009688B4201D217490B60134B1B68134337
:10269000636000232360144A13680133136002E06F
:1026A000002500E0002500F029FB15F0070F0ED0F3
:1026B0004FF0500383F31188BFF36F8FBFF34F8F39
:1026C000FEE70025EFE70025EDE70025EBE72846CC
:1026D00038BD00BF7C080020680800207808002072
:1026E000800800207408002070080020002834D0E2
:1026F00038B50446A0F1080550F8043C174A1268A2
:10270000134208D14FF0500383F31188BFF36F8F4A
:10271000BFF34F8FFEE750F8081C41B14FF0500354
:1027200083F31188BFF36F8FBFF34F8FFEE723EA68
:10273000020340F8043C00F04DFA54F8041C084A27
:1027400013680B4413602846FFF71CFF054A136803
:102750000133136000F0D2FA38BD704768080020DA
:10276000780800206C080020084B1B681B6823B900
:10277000074B4FF0FF321A607047044B1B68DB6851
:10278000DB685A68024B1A60704700BFF8440020AB
:10279000904400202DE9F04707469846089DDDF853
:1027A00024900A9C266B02F18042013A06EB8206D5
:1027B00026F00706C1B308464FF0000CBCF10F0F1E
:1027C00009D810F80C2004EB0C0383F8342012B164
:1027D0000CF1010CF2E7002384F84330062D00D9F8
:1027E0000625E56265644FF0000AC4F848A0201D84
:1027F000FFF7CEFC04F11800FFF7CAFC2461C5F115
:102800000705A5616462C4F84CA084F850A0424654
:1028100039463046FFF734FD2060B9F1000F01D092
:10282000C9F80040BDE8F087002384F83430D5E7CC
:1028300038B5002407E004EB840293000E481844E6
:10284000FFF79BFC0134062CF5D90C4D2846FFF709
:1028500094FC0B4C2046FFF790FC0A48FFF78DFCD8
:102860000948FFF78AFC0948FFF787FC084B1D6001
:10287000084B1C6038BD00BF2445002010450020D7
:10288000FC440020E0440020CC440020B44400205C
:10289000F8440020F444002010B50446FFF71AFD68
:1028A000214A136801331360204B1B685BB1204B36
:1028B0001B686BB91D4B1B68DA6AE36A9A4207D83A
:1028C0001A4B1C6004E0194B1C601368012B28D0C4
:1028D000184A136801331360E06A01238340164AE3
:1028E00011680B43136000EB8000211D134B03EBB9
:1028F0008000FFF750FCFFF70FFD0D4B1B687BB10D
:102900000A4B1B68DA6AE36A9A4209D24FF0E02365
:102910004FF08052C3F8042DBFF34F8FBFF36F8F7A
:1029200010BDFFF785FFD3E7B0440020B04500207D
:10293000A444002094440020A84400202445002002
:1029400010B5044690F8513063B1012B11D0022B21
:102950000ED04FF0500383F31188BFF36F8FBFF396
:102960004F8FFEE7006BFFF7C1FE2046FFF7BEFE6C
:1029700010BDFFF7BBFEFBE70F4B1B68D3B110B5D3
:10298000FFF7A8FC0D4BDB68DC68201DFFF727FC78
:102990000B4A1368013B1360074A1368013B13603D
:1029A000FFF7BAFC2046FFF7CBFF034B1B68002B59
:1029B000E6D110BD704700BFC8440020CC440020C1
:1029C000B044002008B5FFF7D7FF074B1B68012B69
:1029D000F9D94FF0E0234FF08052C3F8042DBFF334
:1029E0004F8FBFF36F8FEEE72445002070B504468C
:1029F0000D461D4B1E681D4B18680430FFF7EFFB9A
:102A000048B91A4B1B68DB6A01229A4018490B68C7
:102A100023EA02030B60B4F1FF3F0DD03444134BA3
:102A20001B685C60A64210D9124B18680F4B1968DE
:102A30000431FFF7BBFB70BD002DEFD00B4B1968C5
:102A400004310D48FFF7A7FBF5E70C4B1868074B5F
:102A500019680431FFF7AAFB094B1B68A342EAD9A6
:102A6000074B1C60E7E700BFAC440020B0450020E6
:102A7000A8440020F4440020B4440020F84400207E
:102A80009044002030B587B00B9C7CB10C9DB5B153
:102A900054250495049D542D1AD04FF0500383F310
:102AA0001188BFF36F8FBFF34F8FFEE74FF05003D6
:102AB00083F31188BFF36F8FBFF34F8FFEE74FF0A3
:102AC000500383F31188BFF36F8FBFF34F8FFEE77F
:102AD000049D0C9D2C63022485F85140002403942E
:102AE000029505AC01940A9C0094FFF753FE0C98E4
:102AF000FFF7D2FE059807B030BD2DE9F04385B051
:102B00000746884614461E469000FFF76DFD08B341
:102B100081465420FFF768FD0546A8B1C0F8309003
:102B2000002380F85130039302900D9B01930C9B7E
:102B300000933346224641463846FFF72BFE28468F
:102B4000FFF7AAFE012007E04846FFF7CFFD4FF050
:102B5000FF3001E04FF0FF3005B0BDE8F08300002A
:102B600010B588B000240594069407AA06A905A804
:102B7000FDF7BCFE059B0293069B01930094234640
:102B8000079A0E490E48FFF77DFF0E4B186090B173
:102B90004FF0500383F31188BFF36F8FBFF34F8F54
:102BA000094B4FF0FF321A60084B01221A60084BA4
:102BB0001C60FFF729FC08B010BD00BF6051000881
:102BC000C52900088C44002090440020A444002023
:102BD000AC440020024A136801331360704700BF01
:102BE00088440020F8B53A4B1B68002B69D1394B5B
:102BF0001D6801351D60C5B9374B1B681B6843B1A3
:102C00004FF0500383F31188BFF36F8FBFF34F8FE3
:102C1000FEE7314A1168314B186810601960304A7C
:102C2000136801331360FFF79FFD2E4B1B68AB4207
:102C30003DD900272C4B1B68DB6A03EB83039A000A
:102C40002A4B9B58012B00D90127294B1B68002BCD
:102C50003CD001273AE001271F4B1B681B6843B398
:102C60001D4B1B68DB68DC6863689D4226D3261D0C
:102C70003046FFF7B4FAA36A1BB104F11800FFF75E
:102C8000AEFAE36A01229A401A49086802430A60D0
:102C900003EB83039A00314614481044FFF77BFA94
:102CA000E26A114B1B68DB6A9A42D4D2D4E7002750
:102CB000D2E70C4B4FF0FF321A60BBE7094A1360B2
:102CC000B8E70D4A13680133136000273846F8BD92
:102CD00088440020AC440020F8440020F444002044
:102CE0009844002090440020B04500202445002056
:102CF0009C440020A8440020A044002038B5354B57
:102D00001B6843B94FF0500383F31188BFF36F8FF3
:102D1000BFF34F8FFEE7FFF7DDFA2E4B1A68013A3B
:102D20001A601B68002B4FD12B4B1B680BB900247A
:102D30004BE00024294B1B681BB3284BDB68DC6885
:102D400004F11800FFF74BFA251D2846FFF747FA54
:102D5000E06A01238340224A11680B43136000EBB1
:102D6000800029461F4B03EB8000FFF714FAE26A4C
:102D70001D4B1B68DB6A9A42DCD31C4B01221A6094
:102D8000D8E70CB1FFF7F0FC194B1C6884B9174B5E
:102D90001C68D4B14FF0E0234FF08052C3F8042DEB
:102DA000BFF34F8FBFF36F8F01240EE0013C07D0BC
:102DB000FFF718FF0028F9D00C4B01221A60F5E745
:102DC0000B4B00221A60E2E70024FFF7A5FA204629
:102DD00038BD00BF88440020B0440020E0440020FB
:102DE000A844002024450020B04500209C44002039
:102DF000A044002010B5A8B10446104B1B6843B195
:102E00004FF0500383F31188BFF36F8FBFF34F8FE1
:102E1000FEE7FFF7DFFE00212046FFF7E7FDFFF7A3
:102E20006DFF48B94FF0E0234FF08052C3F8042DF6
:102E3000BFF34F8FBFF36F8F10BD00BF88440020DA
:102E4000204B1B681BB1204B01221A6070471E4BA0
:102E500000221A601D4B1B68B3FA83F3DBB2C3F187
:102E60001F0303EB83018A0019498A5842B94FF0C6
:102E7000500383F31188BFF36F8FBFF34F8FFEE7CB
:102E8000134803EB83018A0002445168496851608A
:102E900003EB830C4FEA8C0208320244914209D0C2
:102EA00003EB83039A000A4B13445B68DA68094B0F
:102EB0001A607047486862469100054A0A445060AB
:102EC000EEE700BF884400209C440020A844002076
:102ED00024450020B0450020034A026000228260A1
:102EE000C2600271704700BF98510008014B036037
:102EF000704700BF985100087047000010B50446A5
:102F0000024B0360FFF7F2FF204610BDD4510008CA
:102F100010B50446044B0360FFF7E8FF402120464C
:102F200000F094FA204610BDD4510008F8B50446CC
:102F30000F4616461D46FFF7CFFF23460F4A43F8BC
:102F4000102B00202061586020830023E36123625E
:102F50006362A062E0626063A063E06384F8327041
:102F6000666384F831509DF8183084F830309DF84D
:102F70001C3084F833302046F8BD00BFD45100081F
:102F800010B58AB090F83230012B72D0022B76D077
:102F900013B990F831300493002306930793082364
:102FA0000893DFED3A7A30EE270ADFED397A20EE2A
:102FB000270A9FED387AC0EE077AFDEEE77A17EE22
:102FC00090EAF3EE0E7A70EEA70A9FED337A60EE88
:102FD000870ADFED326AC0EEA67AFDEEE77A17EED9
:102FE00090CA21EE071ADFED2E6AC1EE267AFDEEB9
:102FF000E77A17EE901A61EE871AF1EE046AC1EED5
:10300000A67AFDEEE77A17EE902AF2EE047A32EE17
:10301000272A22EE072AB3EE047AC2EE077AFDEEE3
:10302000E77A17EE903ACEF307248DF808408DF832
:1030300009E0CCF30B1E8DF80AE0C1F3072E4EEA2F
:103040000C1C8DF80BC08DF80C10C2F30B118DF811
:103050000D10C3F3072141EA02128DF80E208DF8FE
:103060000F3001AB02AA04A9406BFDF7A9FF0AB01B
:1030700010BD90F8313003F5807304938CE790F81D
:10308000313003F50073049386E700BFDC0F49403D
:1030900000FF7F47DC0FC94000F07F450000704211
:1030A0000000FA4308B590F8323003B108BD9FED37
:1030B000042AF7EE001AB0EE001AFFF761FFF5E7F9
:1030C0000000000008B590F8323003B108BDF0EE02
:1030D000400A9FED050AB0EE402AF7EE001AB0EE66
:1030E000401AFFF74DFFF1E7000000004A788B78A7
:1030F00043EA022306EE903A91F803C00B791A09CD
:1031000042EA0C1207EE102A1B0203F470634A799C
:10311000134307EE903AF8EEE66A9FED186A66EE02
:10312000866ADFED175A86EEA56ADFED166A76EE3F
:10313000666AC0ED076AB8EEC77ADFED136A27EE5C
:10314000267A9FED126AC7EE066AB3EE0E7A36EE65
:10315000C77A80ED087AF8EEE77AB3EE047A67EE84
:10316000877A87EE867AF2EE047A77EE677AC0ED98
:10317000097A0B781B090383704700BFDC0FC94035
:1031800000FF7F47DC0F49400000704200F07F45A0
:1031900000B58BB090F83230012B25D0022B29D00E
:1031A00013B990F831300493002306930793082352
:1031B0000893FF238DF808308DF809308DF80A3018
:1031C0008DF80B308DF80C308DF80D308DF80E30F9
:1031D000FC238DF80F3001AB02AA04A9406BFDF768
:1031E000EFFE0BB05DF804FB90F8313003F580730F
:1031F0000493D9E790F8313003F500730493D3E7D3
:1032000080F83110704780F83010704780F8321025
:10321000704741637047000010B582B0074C00232F
:1032200001930093064A03212046FFF77FFE054ADB
:103230000549204600F086F802B010BDB4450020D4
:103240009005002000000020FD2E000810B58AB077
:1032500001220892002306930792009301930293A0
:10326000039305930493074C69462046FDF7DEFD62
:103270002046FDF777FE02212046FDF7CBFF0AB07E
:1032800010BD00BF9005002002680A4B9A4200D092
:10329000704710B588B0084C234601AA00210748A2
:1032A000FDF703FF2146A4F11000FFF71FFF08B050
:1032B00010BD00BF00640040C44500209005002000
:1032C00010B5FFF7C3FF4FF47A70FEF74FFF184CAD
:1032D00018492046FFF79DFF01212046FFF790FF88
:1032E00000212046FFF78FFF00212046FFF78EFFC9
:1032F0002046FFF74DFFB1EE040A2046FFF7E2FE3D
:103300000D4C01224FF480612046FEF727FA01227E
:103310004FF400612046FEF721FA01224FF480515C
:103320002046FEF71BFA4FF47A70FEF71FFFFAE70C
:10333000B445002090050020001C024008B5FFF7AE
:103340006BFF08BD03460846194601F041BC00BFAB
:1033500070B5036884B000249E6903941023154659
:103360000293CDE900446B461268B0479DF80430E3
:1033700003F00603062B03BF009B2B6001202046B1
:1033800004B070BD009890420CBF06200120704729
:1033900010B5034B0360044600F0E8F8204610BD6A
:1033A0002052000810B5054B0360044600F0DEF81B
:1033B0002046082100F04AF8204610BD205200089F
:1033C0002DE9F041069F0899099E8F4204469046D8
:1033D0001D460CD02946204600F0CCF820B1012330
:1033E000376086F80480B3710020BDE8F08107994A
:1033F00000F0C0F80028EDD086F805800020BDE878
:10340000F08100BF38B515461C4600F0B3F800B98E
:1034100038BD082206232560E260237138BD00BF55
:103420002DE9F041064617461D460C4600F0A2F86D
:1034300048B9032D07D823683A46314620465B69D0
:10344000BDE8F0411847BDE8F08100BF00F080BB47
:1034500010B5034B03600446FFF79AFF204610BDEA
:103460008052000810B5054B03600446FFF790FF3B
:1034700020460C21FFF7EAFF204610BD80520008CD
:1034800070B582B00446069E96420D4609D0A068EB
:1034900004680696246A2946A44602B0BDE8704036
:1034A000604719460192009300F064F8DDE90032AC
:1034B0000028ECD0062002B070BD00BF2DE9F04F0F
:1034C0000D4681B01946DDE90A8BDDE90CA91C46E1
:1034D0000746164600F04EF880B9D04527D0B868A8
:1034E00023460468CDE90CA9CDE90A8BE46932468C
:1034F0002946A44601B0BDE8F04F6047002DC9F849
:10350000008089F804600CDBA844C24514BF4FF06A
:1035100001084FF0060889F80680002001B0BDE8D8
:10352000F08F0235F9D1012389F80630F5E75946C5
:10353000384600F01FF80028D1D089F80560ECE784
:103540002DE9F04106460F4614461D46FFF75AFF87
:1035500048B9B068016822468C692B463946A446B2
:10356000BDE8F0416047BDE8F08100BF704700BF93
:1035700000207047814211D008B5406803782A2B9B
:103580000AD049680B782A2B08BF0131FCF7F8FEF6
:10359000B0FA80F0400908BD002008BD0120704746
:1035A00010B5034B03600446FFF7F2FE204610BD42
:1035B000F852000810B5054B03600446FFF7E8FE1B
:1035C00020461821FFF742FF204610BDF8520008A0
:1035D0002DE9F04F83B00546DDF830A05245914605
:1035E0000F4698462DD0EB685E1E05EBC305FBB178
:1035F000EC6814F0020F434639464FEA242212D0F9
:1036000014F0010404D0F81C0DD0D9F80000825841
:10361000A868D0F800C0CDF800A0DCF820B04A447B
:10362000D847032808D8013E731CA5F10805DFD14F
:10363000012003B0BDE8F08F2043C0B203B0BDE865
:10364000F08F1946FFF796FF0028CCD00620F0E750
:103650002DE9F04F93B08A461F9C0793A368DDF8CD
:1036600070B00B90DE06099201D58368A3601E9BA3
:103670009B4500F0688107990B98FFF77BFF0028B6
:1036800040F04E81BAF1000FA8BF1E9B4FF001021F
:103690000892099AA4BFA3EB0A0319464FF0000E43
:1036A000B8BF0146022342F00102CDE905AECDF8D4
:1036B00030E00A920D938A460B9BDF6807F1FF38D2
:1036C000002F00F0828003EBC7074FF00009F96874
:1036D000A0681190CA07CDE90F994CBFDBF8002014
:1036E000099A4FEA212344BFD3580A9A5B44BAF19E
:1036F000000F07D09A45089E2CBF00250125B54232
:1037000000F095808E0705D40599023100F08C8079
:1037100002F0FD02B868016800931E9B02930FAD92
:103720001D9B01930395CD69079B0599A847637974
:103730009DF841209DF842600F991343062E637156
:10374000864600F00A81022E8C4600F00681069D16
:103750002268002D5CD1002A00F081808A4269D065
:10376000002900F0A580032BA57938D9D80702D508
:10377000A068800733D4012D38BF0125012E38BF42
:103780000126EDB2F6B286EA0503DBB2032B40F266
:103790008380032E40F29580DDF83CC09DF84020E8
:1037A0002271002206F00203C4F800C00692A6713E
:1037B00053BBF20728D56379042B2FD008F1FF38CB
:1037C000B8F1FF3FA7F1080781D10C9B33B30D9BE4
:1037D000012B23D001230D93002308936CE7002DC8
:1037E0002ED0002ECFD1032D40F2EE80E8077CD5FD
:1037F0000B9B9B6899073ED485F00103DBB2032B3A
:103800004FD9AB07A571D6D5002013B0BDE8F08F16
:10381000002AA3D10029A6D1042BCFD1DDF818E0CE
:10382000704613B0BDE8F08F8107C7D070E7012361
:103830000C93C3E722799DF840100A432271BBE73D
:10384000032E5AD9F00742D486F00102D2B2032ADD
:10385000A4D80122C4F80090A2710692ACE79DF8AA
:1038600040202160227121B17BB30B9A9268D60768
:10387000CBD50690A0E7059BDDF83CC0002BC0F23D
:1038800090801E9A63449A4216D185F00603DBB2FB
:10389000032B00F2A28006262E40F6B2032E00F281
:1038A000A88001226379C4F80090A271069283E790
:1038B000BEF1000F80D056E785F00103DBB2032B89
:1038C000EFD905F002032E4671E7069076E70B99D3
:1038D00089688907B8D5059B002B70DB1A441E9BAD
:1038E00093420CBF062501254DE785F00103DBB2AD
:1038F000032BD6D9A571002087E70598002834DB73
:103900001E9D0244954270D0002E5BD10A1895424C
:103910009FD19DF84020216006232271A37173E797
:10392000099BC4F800B0BAF1000F237132DB1E9B73
:10393000D3445B4514BF4FF0010B4FF0060B84F8E6
:1039400006B0002061E71D990B98FFF713FE0028D1
:103950003FF491AE099B637156E79DF840302160BA
:103960002371A67113B0BDE8F08F0599023146D0DE
:103970001E9B07980093036805991D6A1D9BA84725
:103980000546002E7FF4FFAE03283FF62FAFDDF88B
:103990003CC009E01AF1020F7FF436AF0123A37196
:1039A00032E7059B023387D01E9B0798009303687C
:1039B00005991E6A1D9B6246B0470646E3E6059BD5
:1039C0000233D5D10125DEE6059B002B1BDB059BD1
:1039D00019441E9B8B427FF464AF9DF84020C4F8CD
:1039E00000C006232271A3710EE77EB90623A371DE
:1039F0000AE7002202232260A371012005E7002EBE
:103A00003FF427AFDEE70233CED14AE70625BAE618
:103A10002DE9F04F89B0CDE9021004469146984651
:103A2000FFF7F0FC002873D1D8F80830DA06039AC3
:103A300048BF2346D46848BF9B68661E002C49D007
:103A4000039A019302EBC40403F0010200920025E3
:103A5000019BE2680495CDE90635009B8DF8145072
:103A600002F002073B4302F0010A2ED0B9F1000F29
:103A700038D01212BAF1000F02D0D9F800309A589B
:103A80004A44A068016804ABD1F818B00299D8473D
:103A9000D8B1079B082B27D09DF81430032B04D9ED
:103AA0001FB923F002038DF81430D8F80C1009B3B5
:103AB000D8F80030049A934242D16BB398F804309E
:103AC0009DF81420134388F80430013E771CA4F1BC
:103AD0000804BDD198F80400003818BF012009B0CF
:103AE000BDE8F08F4A46CCE7BAF1000FD4D0A36806
:103AF0000793D1E704AB0FCB88E80F0098F80430A8
:103B0000032B05D9980714D5039B9B68D907DCD4F0
:103B1000012009B0BDE8F08F0798082805D00829D2
:103B200003D0FFF727FD0028C8D1022388F804300E
:103B3000EEE7DA07ECD5039B9B689B07C5D4E7E764
:103B400000220223C8F8002088F804300120E0E7B2
:103B500001F02AB82DE9F047089D0E4604460F46AD
:103B6000002B4AD194468C45B2FA82F260D942B118
:103B7000C2F12003974020FA03F30CFA02FC1F4322
:103B800094404FEA1C4E1FFA8CF6B7FBFEF1230C53
:103B90000EFB117743EA074301FB06F098420AD96E
:103BA0001CEB030301F1FF3780F01581984240F2CE
:103BB0001281023963441B1AA4B2B3FBFEF00EFB60
:103BC000103344EA034400FB06F6A6420AD91CEB74
:103BD000040400F1FF3380F00081A64240F2FD8032
:103BE0006444023840EA0140A41B00211DB1D440C6
:103BF0000023C5E90043BDE8F0878B4205D90DB12C
:103C0000C5E9000100210846F5E7B3FA83F1002970
:103C100046D1B34202D3824200F2F580841A66EBA9
:103C2000030201201746002DE5D0C5E90047E2E771
:103C3000002A40F09380A1EB0C034FEA1C471FFAC7
:103C40008CFE0121B3FBF7F607FB1630230C43EA89
:103C500000430EFB06F0984208D91CEB030306F163
:103C6000FF3802D2984200F2D08046461B1AA4B216
:103C7000B3FBF7F007FB103344EA03440EFB00FEEE
:103C8000A64508D91CEB040400F1FF3302D2A64577
:103C900000F2B6801846A4EB0E0440EA0640A5E701
:103CA000C1F120078B4022FA07FC4CEA030C06FA0C
:103CB00001FE20FA07F426FA07F344EA0E0400FA9C
:103CC00001F84FEA1C404FEA1449B3FBF0FE1FFA1B
:103CD0008CF600FB1E3349EA03430EFB06F99945B7
:103CE00002FA01F20BD91CEB03030EF1FF3A80F04C
:103CF0008580994540F28280AEF1020E6344A3EBC9
:103D00000909A4B2B9FBF0F300FB139944EA094492
:103D100003FB06F6A64208D91CEB040403F1FF30AE
:103D200068D2A64266D9023B644443EA0E40A41B13
:103D3000A0FB02E6B4427346B14652D34FD05DB108
:103D4000B8EB030264EB090404FA07F722FA01F363
:103D50001F43CC40C5E9007400214CE7C2F12001AB
:103D600020FA01F30CFA02FC26FA01F196403343E3
:103D70004FEA1C471FFA8CFEB1FBF7F007FB101649
:103D8000190C41EA064100FB0EF68E4204FA02F4D9
:103D900008D91CEB010100F1FF382DD28E422BD93E
:103DA00002386144891B9BB2B1FBF7F607FB161181
:103DB00043EA014306FB0EF1994208D91CEB0303C9
:103DC00006F1FF3814D2994212D9023E63445B1ABD
:103DD00046EA004136E73946EDE6184602E7F04587
:103DE000ADD2BEEB020366EB0C060138B146A6E786
:103DF0004646ECE7034698E74046D3E7D6467EE7DB
:103E00006444023847E708460DE7023E63442DE765
:103E100003685A004CBF43F0004323F000431844AA
:103E2000704700BF2DE9F04759B301F1FF3805464F
:103E3000164647464FF0000A0AEB070101EBD17125
:103E4000491005EBC1094846FFF7E2FF88454FEAF4
:103E5000C104034610D004F10800B342284407D837
:103E6000FFF7D6FF0138B04208D201F1010AE3E7BB
:103E70008A4506D04F1EDFE7B042F9D84846BDE874
:103E8000F0874FF000094846BDE8F087012809D0C7
:103E9000022805D0044B00280CBF184600207047AC
:103EA00002487047024870475D4500086D450008AC
:103EB0006545000830B5224B83B004468D1E43B3E0
:103EC00001A92846AFF30080F0B101992A46FFF717
:103ED000A9FF0146C0B1FFF79BFF4B68A064012B0F
:103EE0002BD0002B01F1040025DBFFF791FF00230D
:103EF00023650368E064002B12DBFFF789FF0346AC
:103F00000020236103B030BD00230920236103B0EA
:103F100030BD0C4B0C49C91AC91018460191D5E7A0
:103F2000C3F30360FFF7B2FF031E0CBF092000209C
:103F3000236103B030BD0123DAE700230520E0E769
:103F40000000000034530008545400080368DA07E6
:103F500010B5044606D49B0700F1500009D5FCF7C4
:103F60004BF92368590709D51A070ED5DB0613D577
:103F700010BDFCF739F923685907F5D404F1D800CE
:103F8000FCF742F923681A07F0D404F5AC70FCF78B
:103F900043F92368DB06EBD404F5EC70BDE8104070
:103FA000FCF77EB90346006800B11844704700BFB3
:103FB000704700BF70B504460E46316C2046FFF7CF
:103FC00079FF054688B9326C626123693246214621
:103FD000012098470828F0D0072806D12846316CE0
:103FE000FFF7E6FF301DFCF7F3F800F0D5FD00BF4A
:103FF0002DE9F04701F1040CC768D0F81880064697
:104000009146BCE80F00ADF5767D03AC0FC4BCE86B
:104010000F000FC4BCE80F000FC49CE80F0002ADF6
:104020004FF0000E84E80F00C5F800E021E02B6C93
:1040300073614FF4F47229467CA8FCF711FB3369D5
:104040007CAA3146504698478A9BAB644946CDE9E5
:1040500000588246334601203246B847814630BB7D
:104060004FF4F4727CA92846FCF7FAFABAF1080F6B
:104070001AD1296C3046FFF71DFF09F109090446E2
:104080005FFA89FA0028D2D0AB6BAB643246CDE937
:10409000005833464AF010010120B84738B920468D
:1040A0000DF5767DBDE8F087BAF1070F05D009243C
:1040B00020460DF5767DBDE8F0874846296CFFF770
:1040C00077FF03A8FCF784F8F0B5CB6BFBB001F1E8
:1040D000040C0B640E460546BCE80F0001AC0FC48F
:1040E000BCE80F000FC4BCE80F000FC49CE80F0031
:1040F0004FF0FF3784E80F00009706E02B696A460F
:10410000294698470828044608D110992846FFF701
:10411000D1FE0028F2D009207BB0F0BD6846FFF741
:1041200015FF062CF7D131462846FFF743FF00BFA5
:10413000C160D96B8261196400221946FFF758BF2C
:1041400070B5C66843690B64AEB903690A46044694
:104150000D46014602209847072805D008280FD1B0
:1041600029462046FFF726FF3046296CFFF720FF3F
:10417000281DFCF72DF80122FFF73AFF00F00CFD97
:1041800000F00AFDC26822B1CA6B0A640022FFF780
:104190002FBFFFF799BF00BF052915D8DFE801F051
:1041A0000A031403030501207047009A436C13604F
:1041B0000020704743B90F2A06D800EB8202002086
:1041C0005368009A136070470220704700B585B0AD
:1041D0000A46002303A900911946FFF7DDFF039863
:1041E00005B05DF804FB00BF052915D8DFE801F034
:1041F0000A031403030501207047009B1B684364F6
:104200000020704743B90F2A06D8009B00EB8202BA
:104210001B685360002070470220704710B584B0BF
:10422000002303AC039200940A461946FFF7DCFF13
:1042300004B010BD70B5D36BADF5107D02F1040C68
:10424000136405460C46BCE80F000DF15C0EAEE8A9
:104250000F00BCE80F00AEE80F00BCE80F00AEE8AE
:104260000F009CE80F004FF0FF368EE80F00169607
:1042700010E0FFF7D3FF214616A8A847034616AA69
:104280000820694683B9049B9847052806460CD048
:10429000092809D026996846FFF70CFE03460C2131
:1042A0006A4616A8002BE4D0092616A8FFF74EFE92
:1042B00030460DF5107D70BD2DE9F04F1646CA6CE5
:1042C00089B00D4652F8041B069200F0030C002B37
:1042D00079D00C0C8DF81D400904E4B2059102EB75
:1042E000840202218DF81C10296DBCF1020F08BF59
:1042F000AA6B11F0010809D005A9304600F0CEFAEA
:10430000002856D1082009B0BDE8F08F1768002FAB
:10431000F2D000F00801CDE90118E3469A46BAF15F
:10432000020F4CD01788548802F10409AA6C24F0BB
:1043300001030F21304603EB0208FFF747FF8045DA
:104340003BD827F0010202EB0803834294BF00230D
:104350000123640004F0020407F001072743012F42
:104360004ED0022F35D027BBBBF1000F02D0002B5F
:1043700040F0D38009F104021768002FCFD105A9BE
:104380003046DDF8088000F089FA90B9B8F1000FE6
:10439000B8D00F213046FFF719FF0E2102463046F4
:1043A000FFF73CFF6C4A0F213046FFF737FF07202D
:1043B00000E0092009B0BDE8F08F0023C9E7546888
:1043C00002F10809B2E7090205918DF81D300321B9
:1043D00088E7D9F8004024F00048BBF1000F47D12E
:1043E0002BB1019B002B5CD0B8F1000F59D0002CF1
:1043F00001DA09F1040908F1010209EB8202BBE7C5
:10440000BBF1000F1CD1C3B1D9F80430D9F800209A
:10441000991C4FEAD272CCD005F1580401330494B0
:1044200000F08E8009F10400FFF7BCFD04AB0146EB
:104430002846AFF30080002859D109F108029BE714
:104440000D213046FFF7C2FE2C6A8442F5D1AB6ADB
:104450009945F2D14846FFF7DBFC0F210246304672
:10446000FFF7DCFE2A4600213046FFF7D7FE9EE725
:104470000D213046FFF7AAFE2F6A8742B7D1AB6AFB
:104480009945B4D100240423C5E90B434B44C5F836
:1044900028806B63D9F80030A34258DB01230293D4
:1044A000A9E705F15803CDF80CB009F10407B346AC
:1044B00000241E460BE038460496FFF773FD0022E9
:1044C000014604AB2846AFF300800437F8B94445F1
:1044D00004F10104EFD10D215846FFF777FE049B4C
:1044E000C5F828900246C5E90823062062E704467D
:1044F0000D213046FFF76AFE049E2862022C04BF9D
:10450000EE6205F12C06C5E90969062052E75E4610
:10451000D9F80040DDF80CB069E74846FFF778FCB1
:1045200009F104030446AB632846AFF3008000287A
:104530003FF43FAF22460F213046FFF76FFE36E7CC
:1045400030460D21FFF742FE26462862DBE708F1E0
:10455000010209EB82007EE7000000000023FFF764
:10456000ABBE00BF0123FFF7A7BE00BF0223FFF7CA
:10457000A3BE00BF2DE9F0410646C4B0144605298C
:1045800000F2D880DFE811F012002D00D6006C0098
:1045900091000600836B002C40F0CC8053F8042B74
:1045A00042648363002044B0BDE8F081002B40F0FA
:1045B000C180856B1FFA84FC012006F1040E00FA0D
:1045C00003F111EA0C0F2A4604D052F8041B4EF8EE
:1045D000231015460133102BF1D1A704E2D4B563A3
:1045E000E0E7012B4FEA1447A4B200F08380052BCB
:1045F00040F0A08007EB0408B8F1200F00F29A8089
:104600000F2F40F29980002CCCD00268500700F1A7
:104610001881019302AD2846FBF7FAFD4FEA440CDE
:10462000A7F11000B16B019B0CF1FF3C05EBC00042
:104630000CF1010C043801EB8C0251F8044B40F8EA
:10464000044F9142F9D1012B00F0DE800F2FB163AE
:1046500002D822A8FBF7D0FD2846FBF7D5FDA1E73D
:10466000032B67D1A7B207EB1443102B4FEA144476
:1046700060D80368190700F1BF8022AD2846FBF718
:10468000EDFD7A00B06B05EBC404531E42B1011B73
:10469000625844F8042B013B5A1CF9D100EBC700C7
:1046A000B0632846FBF7B8FD7CE7002B42D1102C05
:1046B00040D80368DD0600F1978022AD2846FBF75D
:1046C000F9FDB76B294600234FF0010C0CFA03F2F9
:1046D0002242384603F1010303D050F8042B0A604C
:1046E0000746042B01F10401F0D1B7632846FBF71C
:1046F000D7FD57E73A19102A1CD8102F1AD0026894
:10470000D00708D5304622F0030240F8502B019321
:10471000FBF76EFD019B019322AD2846FBF768FD78
:10472000B26B019B002C58D10432B2632846FBF7D0
:104730005BFD37E7022036E7B8F1100F026865D954
:10474000D40772D522F0010242F0020240F8502B49
:104750000193FBF755FD3268019B12F0040F66D1FF
:1047600022AD28460193FBF74BFD02A8FBF750FD55
:10477000C7F110014900B26B019BA8F1100C4C1E4F
:1047800005EBC7000134043802EB840152F8044BF6
:1047900040F8044F8A42F9D1BCF1000F5AD0102FD3
:1047A000384638BF10204FEA4C0C103802AD0CF1DF
:1047B000FF3C05EBC0003BE7304622F0010242F02F
:1047C000020240F8502B22AD0193FBF719FD284659
:1047D000FBF716FDB26B24B3019B6400013C05EBB3
:1047E000C7004FF0000CCDE723F01003036000F585
:1047F000EC70FBF75FFD60E723F00803036000F552
:10480000AC70FBF72BFD38E722AD8DE7D107D3D491
:1048100022AD28460193FBF7F3FCB26B019B002C01
:10482000DBD12846FBF7E8FCBCE6540798D53046B8
:1048300022F0040240F8D82B0193FBF7E9FC019B1E
:104840008EE7304622F0040240F8D82B0193FBF7A4
:10485000DFFCDFE6012B3FF467AF0F2FB2633FF6BB
:10486000A1AEDEE7027A03467AB9427AA2B1416884
:10487000013A10B44272086803220C1D1A72020237
:104880005C60000E10BC1A6070470068013A1A7232
:1048900002021A60000E7047B02070472DE9F04305
:1048A000064685B00D464FF000082846FFF7DAFFB0
:1048B000B028044600F01C8107065BD500F0F00329
:1048C000A02B1AD030D8802B00F08280902B27D1DB
:1048D00000F00D030D2B23D002AF002300F00F02D8
:1048E000194600973046FFF757FC002300970D222A
:1048F00019463046FFF778FCD7E7C34303F00703B8
:104900004FF47F621A41010702F47F6201D542F43D
:104910008042002319463046FFF72CFE0028C4D001
:10492000092005B0BDE8F083B02B68D0C02B3DD185
:10493000C62800F0CA80C72800F0DF8000F0F80326
:10494000C02B00F0EC80C82800F0F780C928E7D120
:104950002846FFF787FF020300F00F0002F47022E1
:1049600001300243012105233046FFF703FE0028F2
:104970009BD0D5E78300DBB21F1D0DF10809002392
:104980001946CDF800900D223046FFF705FC029B3A
:10499000CDF8009060064CBFDF1BFF1800230D22EE
:1049A000194630460297FFF71FFC7EE700F0F80338
:1049B000D02BB5D100F007020132052342F40022CA
:1049C00001213046FFF7D6FD00283FF46EAFA7E780
:1049D0002846FFF747FF24022043B0F5004F9FD041
:1049E00004010023A2B219463046FFF7C3FD002898
:1049F00096D114F4004F18BF4FF0010855E7A0F10D
:104A0000B103042B00F2B580DFE803F05529160C42
:104A1000030003AA0023009219460D223046FFF737
:104A2000BBFB42E700231A4605213046FFF7A2FDF3
:104A300000283FF43AAF73E72846FFF713FF02035D
:104A400000F00F00013002F47022012302431946E6
:104A50003046FFF78FFD00283FF427AF60E70023C3
:104A60000DF108090D221946CDF800903046FFF7E8
:104A700093FB2846FFF7F6FE0206029C4FF0020762
:104A80000BD500F07F00B840044428460294FFF79D
:104A9000E9FE030607F10707F3D4B840002304F545
:104AA00001740444CDF800900D221946304602945A
:104AB000FFF79AFBF9E62846FFF7D4FE431EDBB268
:104AC0000E2B02467FF625AF2AE72846FFF7CAFEDF
:104AD000020300F00F00013002F4702203230243AE
:104AE00019463046FFF746FD00283FF4DEAE17E7D3
:104AF000B8F1000F2DD0002013E72846FFF7B2FED3
:104B0000431EDBB20E2B02463FF60AAF0023042100
:104B10003046FFF72FFD00283FF4C7AE00E700F056
:104B20000F020132032342F4202219463046FFF7D8
:104B300021FD00283FF4B9AEF2E62846FFF792FEC9
:104B400000F0F00200F00F031032013343EA0232AA
:104B500008E702AC4346414600940E223046FFF778
:104B60001BFB0F220094434641463046FFF73CFBB7
:104B7000C1E700F0FC03B42B3FF4D2AE00F0070213
:104B80000132012342F4002219463046FFF7F2FCBD
:104B900000283FF48AAEC3E608B5062000F070F89E
:104BA0000120FCF713F800BF024B0146186800F023
:104BB000A9B900BF28040020014800F0E5B800BFF3
:104BC0005C470020014800F0E1B800BF5C470020CE
:104BD00013460A460146022000F0E8B8830730B5C4
:104BE00047D0541E002A3ED0CAB2034601E0013C21
:104BF00039D303F8012B9D07F9D1032C2CD9CDB261
:104C000005EB05250F2C05EB054535D9A4F1100260
:104C100022F00F0C03F1100EE6444FEA121C1A4664
:104C2000C2E90055C2E9025510327245F8D10CF1C3
:104C3000010214F00C0F03EB021204F00F0C13D05E
:104C4000ACF1040323F003030433134442F8045B80
:104C50009342FBD10CF003042CB1C9B21C4403F8FD
:104C6000011BA342FBD130BD64461346002CF4D196
:104C7000F9E703461446C0E71A46A446E0E700BF3A
:104C800038B5144B1F281D681ED8D5F838210446A6
:104C900062B152F820304BB1012B05D0591C0FD016
:104CA000002142F820109847002038BD284600F027
:104CB00029F8224601462846BDE8384000F00CB8E5
:104CC00016232B60012038BD16232B604FF0FF30D8
:104CD00038BD00BF2804002070B50C46084D0346BF
:104CE0000026204611461C462E60FBF767FF431C3A
:104CF00000D070BD2B68002BFBD0236070BD00BFBF
:104D000058470020FBF758BF38B5074D002204462E
:104D100008462A60FBF760FF431C00D038BD2B68B3
:104D2000002BFBD0236038BD58470020014B18688A
:104D3000704700BF2804002070B50F4B0F4DAB42E9
:104D4000A3EB050607D0B610002455F8043B013448
:104D50009847A642F9D800F0E5F9094D094B5E1BCA
:104D6000AB424FEAA60606D0002455F8043B0134B6
:104D70009847A642F9D870BD54540008545400080E
:104D80005454000860540008704700BF704700BFCB
:104D9000082802D14FF48050704708B5FFF7C6FFCE
:104DA000162303604FF0FF3008BD00BF2DE9F84324
:104DB0001B4D0646286898460F469146FFF7E4FFCC
:104DC000184B1C681CB3286865681F2D22DC4EB97F
:104DD0006B1C0235636044F82570FFF7D7FF002095
:104DE000BDE8F88304EB85010123C1F88890D4F86D
:104DF0008821AB401A43022EC4F88821C1F80881EB
:104E0000E6D1D4F88C211A43C4F88C21E0E7064C93
:104E10001C60D8E7FFF7BAFF4FF0FF30E0E700BFB4
:104E200070050020F448002064470020024B13B1B5
:104E3000024800F005B8704700000000FD5000086F
:104E4000002301461A461846FFF7B0BF2DE9F84384
:104E5000064608208946FFF79BFFDFF8A480054639
:104E60003046FFF7A9FED8F808305F6827F003073F
:104E7000A7F11104A4EB09042C44B4FBF5F4013CA4
:104E800005FB04F4A54208DC00213046FFF73CFF97
:104E9000D8F808303B44984205D03046FFF792FEE0
:104EA0000020BDE8F88361423046FFF72DFF013056
:104EB0000FD0114AD8F808303F1B47F001075F6058
:104EC000136830461B1B1360FFF77CFE0120BDE812
:104ED000F88300213046FFF717FFD8F80820831A1F
:104EE0000F2BDADD43F001035360044B02491B68CA
:104EF000C01A0860D1E700BFF4450020140000206C
:104F00002000002000297CD02DE9F0410C4680468D
:104F1000FFF752FE54F8043C754FA4F1080523F046
:104F200001016818BE684268864222F0030200F060
:104F30008380DE07426000EB020C33D454F8084C47
:104F4000DCF804302D1B2144AC6807F1080C6445E3
:104F500003F0010364D0D5F80CE0C4F80CE0CEF8FF
:104F60000840002B00F0818041F001036B6001607C
:104F7000B1F5007F22D27868CB08012249090133BC
:104F80008A40024357F833107A6007EBC302083AAD
:104F9000C5E9021247F83350CD604046BDE8F04104
:104FA000FFF710BEDCF80430DB072BD541F001031E
:104FB000B1F5007F44F8043C0160DCD3B1F5206F0B
:104FC0004FEA512353D28B0903F1390003F1380220
:104FD000C300F818FB580838984203D161E09B6879
:104FE000984204D05A6822F003028A42F7D8D8685F
:104FF000C5E902308560DD604046BDE8F041FFF75D
:10500000E1BD7047114407F1080C836863453FD048
:10501000C268DA60936041F001036B606950A7E7F2
:10502000002B5FD10A44D0E90213CB60996042F0B3
:1050300001036B60AA50B0E7DB070A4407D454F8B9
:10504000083CED1A1A44D5E90213CB60996042F08E
:1050500001036B60274BBD601B6893429DD8264BB4
:1050600040461968FFF7F2FE97E71144CDE7142B8D
:1050700008D9542B1DD80B0B03F16F0003F16E02FE
:10508000C300A6E703F15C0003F15B02C300A0E7E5
:1050900041F00103C7E90455C5E902CC6B606950D2
:1050A0007BE779689210012404FA02F20A437A60DD
:1050B0009EE7B3F5AA7F06D8CB0B03F1780003F186
:1050C0007702C30085E740F25452934206D88B0C16
:1050D00003F17D0003F17C02C3007AE74FF47E7395
:1050E0007E2276E741F001036B60016055E700BF67
:1050F00020000020180000201C46002038B5074D75
:10510000074C2C1BA41005D0013C55F8043D9847D2
:10511000002CF9D1BDE8384000F00AB8645400080A
:1051200060540008F8B500BFF8BC08BC9E46704744
:0C513000F8B500BFF8BC08BC9E467047F4
:10513C0058510008C13200080000000000000000B7
:10514C00800000000000000000000000444D5F548F
:10515C0061736B0049444C450000000000000000E6
:10516C00010203040000000000000000010203041F
:10517C0006070809354D6F746F7200002052000845
:10518C008051000800000000885100080000000059
:10519C000000000000000000000000000000000003
:1051AC0036444D3433313000F8520008AC5100080D
:1051BC000000000001000000885100080000000001
:1051CC0000000000B4510008A5300008C5300008EC
:1051DC00F92E0008FD2E0008112F00084E31305F0B
:1051EC005F637878616269763131375F5F636C61D8
:1051FC0073735F747970655F696E666F450000004C
:10520C0080520008E8510008B45200080000000069
:10521C000C52000891330008A533000871350008C2
:10522C00713500082134000851330008053400089A
:10523C00C1330008853300084E31305F5F637878E6
:10524C00616269763132305F5F73695F636C617381
:10525C00735F747970655F696E666F45000000005E
:10526C0080520008445200080C5200080000000054
:10527C006C52000851340008653400087135000880
:10528C0071350008213400085133000841350008FD
:10529C00BD34000881340008537439747970655F2B
:1052AC00696E666F0000000020520008A4520008CE
:1052BC004E31305F5F637878616269763132315F8D
:1052CC005F766D695F636C6173735F747970655F32
:1052DC00696E666F4500000080520008BC520008E1
:1052EC000C52000800000000E4520008A135000830
:1052FC00B5350008713500087135000821340008F7
:10530C0051330008113A000851360008D135000815
:10531C0008B10181B0B000840000000008B1018127
:08532C00B0B000840000000095
:105334004CB0FF7F01000000F0DBFF7FAB08B180C1
:105344003CDCFF7FB0A8098058DDFF7FCCFFFF7FE6
:1053540070DDFF7FD0FFFF7F90DDFF7F0100000045
:105364002CDEFF7F00840A8094DEFF7F01000000B2
:10537400D8DEFF7FB0A809800CDFFF7FB0A80780CC
:105384003CDFFF7FB0B0A880B0DFFF7F01000000EA
:10539400BCDFFF7FB0AA0380E8DFFF7F01000000CD
:1053A4009CE1FF7FB0B0AC80C0E1FF7F0100000052
:1053B4001CE2FF7FB0AF028094E2FF7FB0AF1280A7
:1053C4004CE6FF7FB0AF088084E7FF7F0100000058
:1053D400E0EAFF7FB0A9028070EBFF7FB0B0A88045
:1053E400C0EBFF7F01000000C8EBFF7FB0B0AA80D4
:1053F400FCEBFF7FAE75B280CCECFF7FAB3F3A8015
:105404002CEDFF7F0100000034EDFF7FB0B0AA80D7
:1054140070EDFF7F0100000018EEFF7FAA0FB2803D
:1054240094EEFF7FB0AF088030F1FF7F01000000F1
:1054340040F1FF7FAC3F038028F4FF7F01000000B0
:1054440058F4FF7FB0AD04804CF7FF7F01000000EB
:0C5454002D4E0008FD0700083D33000845
:04546000D507000864
:10546400000000000024F40001000000100000000F
:10547400AAAAAAAAFFFFFFFF000002000000000082
:105484000000000000000000200000202000002098
:1054940028000020280000203000002030000020D8
:1054A4003800002038000020400000204000002088
:1054B4004800002048000020500000205000002038
:1054C40058000020580000206000002060000020E8
:1054D4006800002068000020700000207000002098
:1054E4007800002078000020800000208000002048
:1054F40088000020880000209000002090000020F8
:105504009800002098000020A0000020A0000020A7
:10551400A8000020A8000020B0000020B000002057
:10552400B8000020B8000020C0000020C000002007
:10553400C8000020C8000020D0000020D0000020B7
:10554400D8000020D8000020E0000020E000002067
:10555400E8000020E8000020F0000020F000002017
:10556400F8000020F80000200001002000010020C5
:105574000801002008010020100100201001002073
:105584001801002018010020200100202001002023
:1055940028010020280100203001002030010020D3
:1055A4003801002038010020400100204001002083
:1055B4004801002048010020500100205001002033
:1055C40058010020580100206001002060010020E3
:1055D4006801002068010020700100207001002093
:1055E4007801002078010020800100208001002043
:1055F40088010020880100209001002090010020F3
:105604009801002098010020A0010020A0010020A2
:10561400A8010020A8010020B0010020B001002052
:10562400B8010020B8010020C0010020C001002002
:10563400C8010020C8010020D0010020D0010020B2
:10564400D8010020D8010020E0010020E001002062
:10565400E8010020E8010020F0010020F001002012
:10566400F8010020F80100200002002000020020C0
:10567400080200200802002010020020100200206E
:10568400180200201802002020020020200200201E
:1056940028020020280200203002002030020020CE
:1056A400380200203802002040020020400200207E
:1056B400480200204802002050020020500200202E
:1056C40058020020580200206002002060020020DE
:1056D400680200206802002070020020700200208E
:1056E400780200207802002080020020800200203E
:1056F40088020020880200209002002090020020EE
:105704009802002098020020A0020020A00200209D
:10571400A8020020A8020020B0020020B00200204D
:10572400B8020020B8020020C0020020C0020020FD
:10573400C8020020C8020020D0020020D0020020AD
:10574400D8020020D8020020E0020020E00200205D
:10575400E8020020E8020020F0020020F00200200D
:10576400F8020020F80200200003002000030020BB
:105774000803002008030020100300201003002069
:105784001803002018030020200300202003002019
:1057940028030020280300203003002030030020C9
:1057A4003803002038030020400300204003002079
:1057B4004803002048030020500300205003002029
:1057C40058030020580300206003002060030020D9
:1057D4006803002068030020700300207003002089
:1057E4007803002078030020800300208003002039
:1057F40088030020880300209003002090030020E9
:105804009803002098030020A0030020A003002098
:10581400A8030020A8030020B0030020B003002048
:10582400B8030020B8030020C0030020C0030020F8
:10583400C8030020C8030020D0030020D0030020A8
:10584400D8030020D8030020E0030020E003002058
:10585400E8030020E8030020F0030020F003002008
:10586400F8030020F80300200004002000040020B6
:105874000804002008040020100400201004002064
:105884001804002018040020300400200000000048
:10589400000000002046002088460020F04600203A
:1058A40000000000000000000000000000000000F4
:1058B40000000000000000000000000000000000E4
:1058C40000000000000000000000000000000000D4
:1058D40000000000000000000000000000000000C4
:1058E40000000000000000000000000000000000B4
:1058F40000000000000000000000000000000000A4
:105904000000000000000000000000000000000093
:105914000000000000000000000000000000000083
:105924000000000000000000010000000000000072
:105934000E33CDAB34126DE6ECDE05000B00000037
:105944000000000000000000000000000000000053
:105954000000000000000000000000000000000043
:105964000000000000000000000000000000000033
:105974000000000000000000000000000000000023
:105984000000000000000000000000000000000013
:105994000000000000000000000000000000000003
:1059A40000000000000000000000000000000000F3
:1059B40000000000000000000000000000000000E3
:1059C40000000000000000000000000000000000D3
:0459D4006047002008
:0400000508000C35AE
:00000001FF
