:020000040800F2
:1000000000000220191800080D1700080F1700083B
:10001000111700081317000815170008000000004A
:10002000000000000000000000000000912E000809
:100030001717000800000000312F0008952F000856
:10004000691800086918000869180008691800088C
:10005000691800086918000869180008691800087C
:10006000691800086918000869180008691800086C
:10007000691800086918000869180008691800085C
:10008000691800086918000869180008191700089D
:10009000291700086918000869180008691800087D
:1000A000691800086918000869180008691800082C
:1000B000691800086918000869180008691800081C
:1000C000691800086918000869180008691800080C
:1000D00069180008691800086918000869180008FC
:1000E00069180008691800086918000869180008EC
:1000F000691800083917000869180008691800080D
:1001000069180008691800086918000869180008CB
:1001100069180008691800086918000869180008BB
:1001200069180008691800086918000869180008AB
:10013000691800086918000869180008691800089B
:10014000691800086918000869180008691800088B
:10015000691800086918000869180008691800087B
:10016000691800086918000869180008691800086B
:1001700069180008691800086918000800000000E4
:08018000691800086918000865
:1001C00081F0004102E000BF83F0004330B54FEA08
:1001D00041044FEA430594EA050F08BF90EA020F75
:1001E0001FBF54EA000C55EA020C7FEA645C7FEA08
:1001F000655C00F0E2804FEA5454D4EB5555B8BF2B
:100200006D420CDD2C4480EA020281EA030382EA9B
:10021000000083EA010180EA020281EA0303362D2D
:1002200088BF30BD11F0004F4FEA01314FF4801C00
:100230004CEA113102D0404261EB410113F0004F12
:100240004FEA03334CEA133302D0524263EB4303C9
:1002500094EA050F00F0A780A4F10104D5F1200E67
:100260000DDB02FA0EFC22FA05F2801841F10001C2
:1002700003FA0EF2801843FA05F359410EE0A5F196
:1002800020050EF1200E012A03FA0EFC28BF4CF0C7
:10029000020C43FA05F3C01851EBE37101F000457D
:1002A00007D54FF0000EDCF1000C7EEB00006EEB8A
:1002B0000101B1F5801F1BD3B1F5001F0CD3490814
:1002C0005FEA30004FEA3C0C04F101044FEA44526B
:1002D00012F5800F80F09A80BCF1004F08BF5FEAF2
:1002E000500C50F1000041EB045141EA050130BDD2
:1002F0005FEA4C0C404141EB0101013C28BFB1F5E4
:10030000801FE9D291F0000F04BF01460020B1FA2E
:1003100081F308BF2033A3F10B03B3F120020CDA01
:100320000C3208DD02F1140CC2F10C0201FA0CF0DF
:1003300021FA02F10CE002F11402D8BFC2F1200C44
:1003400001FA02F120FA0CFCDCBF41EA0C019040FA
:10035000E41AA2BF01EB0451294330BD6FEA040443
:100360001F3C1CDA0C340EDC04F11404C4F120022E
:1003700020FA04F001FA02F340EA030021FA04F340
:1003800045EA030130BDC4F10C04C4F1200220FA97
:1003900002F001FA04F340EA0300294630BD21FAD5
:1003A00004F0294630BD94F0000F83F4801306BF9B
:1003B00081F480110134013D4EE77FEA645C18BF8F
:1003C0007FEA655C29D094EA050F08BF90EA020F26
:1003D00005D054EA000C04BF1946104630BD91EA1E
:1003E000030F1EBF0021002030BD5FEA545C05D121
:1003F0004000494128BF41F0004130BD14F5800460
:100400003CBF01F5801130BD01F0004545F0FE41D3
:1004100041F470014FF0000030BD7FEA645C1ABF08
:10042000194610467FEA655C1CBF0B46024650EA3F
:10043000013406BF52EA033591EA030F41F400216B
:1004400030BD00BF90F0000F04BF0021704730B5F1
:100450004FF4806404F132044FF000054FF00001C6
:1004600050E700BF90F0000F04BF0021704730B587
:100470004FF4806404F1320410F0004548BF40425C
:100480004FF000013EE700BF42004FEAE2014FEAB1
:1004900031014FEA02701FBF12F07F4393F07F4F8C
:1004A00081F06051704732F07F4208BF704793F08F
:1004B0007F4F04BF41F40021704730B54FF46074A2
:1004C00001F0004521F000411CE700BF50EA0102A5
:1004D00008BF704730B54FF000050AE050EA01024E
:1004E00008BF704730B511F0004502D5404261EBBE
:1004F00041014FF4806404F132045FEA915C3FF4FF
:10050000D8AE4FF003025FEADC0C18BF03325FEA9B
:10051000DC0C18BF033202EBDC02C2F1200300FA4C
:1005200003FC20FA02F001FA03FE40EA0E0021FA71
:1005300002F11444BDE600BF70B54FF0FF0C4CF45F
:10054000E06C1CEA11541DBF1CEA135594EA0C0F11
:1005500095EA0C0F00F0DEF82C4481EA030621EA4C
:100560004C5123EA4C5350EA013518BF52EA033587
:1005700041F4801143F4801338D0A0FB02CE4FF039
:100580000005E1FB02E506F00042E0FB03E54FF069
:100590000006E1FB03569CF0000F18BF4EF0010E61
:1005A000A4F1FF04B6F5007F64F5407404D25FEA5D
:1005B0004E0E6D4146EB060642EAC62141EA555110
:1005C0004FEAC52040EA5E504FEACE2EB4F1FD0C52
:1005D00088BFBCF5E06F1ED8BEF1004F08BF5FEAD0
:1005E000500E50F1000041EB045170BD06F0004682
:1005F00046EA010140EA020081EA0301B4EB5C042F
:10060000C2BFD4EB0C0541EA045170BD41F4801126
:100610004FF0000E013C00F3AB8014F1360FDEBF4B
:10062000002001F0004170BDC4F10004203C35DA27
:100630000C341BDC04F11404C4F1200500FA05F3AA
:1006400020FA04F001FA05F240EA020001F000424B
:1006500021F0004110EBD37021FA04F642EB0601C1
:100660005EEA430E08BF20EAD37070BDC4F10C04EB
:10067000C4F1200500FA04F320FA05F001FA04F2AF
:1006800040EA020001F0004110EBD37041F100019B
:100690005EEA430E08BF20EAD37070BDC4F12005A6
:1006A00000FA05F24EEA020E20FA04F301FA05F20E
:1006B00043EA020321FA04F001F0004121FA04F2B6
:1006C00020EA020000EBD3705EEA430E08BF20EA86
:1006D000D37070BD94F0000F0FD101F000464000C0
:1006E00041EB010111F4801F08BF013CF7D041EA42
:1006F000060195F0000F18BF704703F00046520046
:1007000043EB030313F4801F08BF013DF7D043EA16
:100710000603704794EA0C0F0CEA135518BF95EACC
:100720000C0F0CD050EA410618BF52EA4306D1D153
:1007300081EA030101F000414FF0000070BD50EA72
:10074000410606BF1046194652EA430619D094EAFC
:100750000C0F02D150EA013613D195EA0C0F05D1E6
:1007600052EA03361CBF104619460AD181EA03013A
:1007700001F0004141F0FE4141F470014FF00000F2
:1007800070BD41F0FE4141F4780170BD70B54FF08D
:10079000FF0C4CF4E06C1CEA11541DBF1CEA13550D
:1007A00094EA0C0F95EA0C0F00F0A7F8A4EB0504EF
:1007B00081EA030E52EA03354FEA013100F08880E6
:1007C0004FEA03334FF0805545EA131343EA1263AF
:1007D0004FEA022245EA111545EA10654FEA002664
:1007E0000EF000419D4208BF964244F1FD0404F51D
:1007F000407402D25B084FEA3202B61A65EB030579
:100800005B084FEA32024FF480104FF4002CB6EB35
:10081000020E75EB030E22BFB61A754640EA0C00B5
:100820005B084FEA3202B6EB020E75EB030E22BFF5
:10083000B61A754640EA5C005B084FEA3202B6EB36
:10084000020E75EB030E22BFB61A754640EA9C00F5
:100850005B084FEA3202B6EB020E75EB030E22BFC5
:10086000B61A754640EADC0055EA060E18D04FEA83
:10087000051545EA16754FEA06164FEAC30343EA23
:1008800052734FEAC2025FEA1C1CC0D111F4801FF0
:100890000BD141EA00014FF000004FF0004CB6E7E9
:1008A00011F4801F04BF01430020B4F1FD0C88BF88
:1008B000BCF5E06F3FF6AFAEB5EB030C04BFB6EB93
:1008C000020C5FEA500C50F1000041EB045170BD86
:1008D0000EF0004E4EEA113114EB5C04C2BFD4EBB3
:1008E0000C0541EA045170BD41F480114FF0000E37
:1008F000013C90E645EA060E8DE60CEA135594EAB3
:100900000C0F08BF95EA0C0F3FF43BAF94EA0C0FB5
:100910000AD150EA01347FF434AF95EA0C0F7FF42A
:1009200025AF104619462CE795EA0C0F06D152EA7E
:1009300003353FF4FDAE1046194622E750EA410662
:1009400018BF52EA43067FF4C5AE50EA41047FF473
:100950000DAF52EA43057FF4EBAE12E74FEA4102D6
:10096000B2F1E04324BFB3F5001CDCF1FE5C0DD90D
:1009700001F0004C4FEAC0024CEA5070B2F1004F57
:1009800040EB830008BF20F00100704711F0804F5A
:1009900021D113F13872BCBF01F00040704741F41F
:1009A00080114FEA5252C2F11802C2F1200C10FA23
:1009B0000CF320FA02F018BF40F001004FEAC12307
:1009C0004FEAD32303FA0CFC40EA0C0023FA02F3AB
:1009D0004FEA4303CCE77FEA625307D150EA013381
:1009E0001EBF4FF0FE4040F44000704701F0004051
:1009F00040F0FE4040F40000704700BF53B94AB9D0
:100A0000002908BF00281CBF4FF0FF314FF0FF3016
:100A100000F0E2B8ADF1080C6DE904CE0BF096FBE6
:100A2000DDF804E0DDE9022304B0704700F1340191
:100A300091E838009C46A6464CF8045D90E8FF0F0C
:100A4000E54600BD90EC210B704700BF80EC210B08
:100A5000704700BF90EC200B704700BF80EC200B6C
:100A6000704700BFD0EC200B704700BFC0EC200BDC
:100A7000704700BFF0EC0201F0EC0211F0EC022133
:100A8000F0EC0231F0EC0241F0EC0251F0EC0261CA
:100A9000F0EC0271F0EC0281F0EC0291F0EC02A1BA
:100AA000F0EC02B1F0EC02C1F0EC02D1F0EC02E1AA
:100AB000F0EC02F1704700BFE0EC0201E0EC021143
:100AC000E0EC0221E0EC0231E0EC0241E0EC02510A
:100AD000E0EC0261E0EC0271E0EC0281E0EC0291FA
:100AE000E0EC02A1E0EC02B1E0EC02C1E0EC02D1EA
:100AF000E0EC02E1E0EC02F1704700BFB0FC0181E4
:100B0000B0FC0191B0FC01A1B0FC01B1704700BF85
:100B1000A0FC0181A0FC0191A0FC01A1A0FC01B1FD
:100B2000704700BFEC4600B52DE900502DE9FF1FCE
:100B30004FF000032DE90C0001A90BF0C1FDDDF819
:100B400040E012B0704700BFEC4600B52DE9005000
:100B50002DE9FF1F4FF000032DE90C0001A90BF058
:100B6000EBFDDDF840E012B0704700BFEC4600B589
:100B70002DE900502DE9FF1F4FF000032DE90C0077
:100B800001A90BF0FBFDDDF840E012B0704700BF9B
:100B9000EC4600B52DE900502DE9FF1F4FF0000392
:100BA0002DE90C0001AB0BF0BFFDDDF840E012B009
:100BB000704700BFEC4600B52DE900502DE9FF1F3E
:100BC0004FF000032DE90C0001AA0BF037FEDDF811
:100BD00040E012B0704700BF704700BF0000000047
:100BE00002780B78012A28BF9A4240F0D8806DE93C
:100BF000044540EA0104CDE902676FF0000C4FEABA
:100C000044721AB380EA010414F0070F6BD100F0AC
:100C1000070420F0070004F0030521F007014FEA64
:100C2000C505F0E8042314F0040FF1E804670CFA9A
:100C300005F462EA040266EA04060BD063EA0403E0
:100C4000624667EA0407664604E000BFF0E8042352
:100C5000F1E8046782FA4CF582EA0604A4FA8CF4FF
:100C60006CBB83FA4CF583EA0705A5FA8CF595B9B8
:100C700050E9022351E9026782FA4CF582EA060440
:100C8000A4FA8CF483FA4CF583EA0705A5FA8CF5EF
:100C90002543DBD09CB92DBAB5FA85F424F00704BE
:100CA00027FA04F1DDE9026723FA04F303F0FF00F9
:100CB00001F0FF01FDE80445A0EB0100704724BAF4
:100CC000B4FA84F424F0070426FA04F1DDE902679B
:100CD00022FA04F202F0FF0001F0FF01FDE80445F2
:100CE000A0EB0100704714F0030F3CD110F0030497
:100CF00028D150F8082B51F8083B82FA4CF582EACB
:100D00000305A5FA8CF55DB950F8042C51F8043CA4
:100D100082FA4CF582EA0305A5FA8CF5002DE8D09D
:100D20002DBAB5FA85F424F0070423FA04F122FA67
:100D300004F202F0FF0001F0FF01FDE80445A0EB22
:100D4000010070474FEAC40420F0030050F8082B5C
:100D500021F0030151F8083B0CFA04F462EA0402A2
:100D600063EA0403C9E710F003041DD0A1EB0401FA
:100D700020F00300E40750F8042B06D012D28B7841
:100D80005FFAA2F4E41A06D12BB1CB785FFAB2F481
:100D9000E41A00D133B920465DF8104B7047A2EB3E
:100DA0000300704701F1040150F8042BCC0721F037
:100DB000030151F8043B48D824D222F07F4482FA40
:100DC0004CF594EA1325A5FA8CF50AD165B951F8CA
:100DD000043B84EA0204B4EB036F0ED150F8042BF9
:100DE000EBE74FEA132355E035F07F454DD1087806
:100DF000FDE80445C0F1000070474FEA126203F0BD
:100E0000FF0347E002EA1C4482FA4CF594EA1345DA
:100E1000A5FA8CF50AD165B951F8043B84EA0204BD
:100E2000B4EB034F0CD150F8042BEBE74FEA13431C
:100E300030E015EA1C4528D10B884FEA124229E020
:100E40004FEA124203EA1C4324E002F0FF0482FA54
:100E50004CF594EA1365A5FA8CF50AD165B951F8F9
:100E6000043B84EA0204B4EB032F09D150F8042BAD
:100E7000EBE74FEA13630DE015F0FF0F05D10B68A8
:100E80004FEA122223F07F4304E04FF00000FDE818
:100E90000445704712BA1BBA82FA4CF482EA030482
:100EA000A4FA8CF5B5FA85F402FA04F203FA04F315
:100EB0004FEA1260FDE80445A0EB1360704700BFE5
:100EC00001F0FF01102A2BDB10F0070F08D010F8FB
:100ED000013B013A8B422DD010F0070F42B3F6D1FF
:100EE000F0B441EA012141EA014122F007047FF018
:100EF00000070023F0E80256083C85EA010586EA6F
:100F0000010685FA47F5A3FA87F586FA47F6A5FAAA
:100F100087F68EB9EED1F0BC01F0FF0102F00702B6
:100F200032B110F8013B013A83EA010313B1F8D161
:100F30000020704701387047002D06BF3546033842
:100F4000073815F0010F07D1013015F4807F02BF7B
:100F5000013015F4C03F0130F0BC0138704700BFCC
:100F6000844641EA000313F003036DD1403A41D3B4
:100F700051F8043B40F8043B51F8043B40F8043B73
:100F800051F8043B40F8043B51F8043B40F8043B63
:100F900051F8043B40F8043B51F8043B40F8043B53
:100FA00051F8043B40F8043B51F8043B40F8043B43
:100FB00051F8043B40F8043B51F8043B40F8043B33
:100FC00051F8043B40F8043B51F8043B40F8043B23
:100FD00051F8043B40F8043B51F8043B40F8043B13
:100FE00051F8043B40F8043B51F8043B40F8043B03
:100FF000403ABDD2303211D351F8043B40F8043BA3
:1010000051F8043B40F8043B51F8043B40F8043BE2
:1010100051F8043B40F8043B103AEDD20C3205D3B2
:1010200051F8043B40F8043B043AF9D2043208D0AA
:10103000D2071CBF11F8013B00F8013B01D30B881C
:1010400003806046704700BF082A13D38B078DD0FA
:1010500010F003038AD0C3F10403D21ADB071CBFCC
:1010600011F8013B00F8013B80D331F8023B20F836
:10107000023B7BE7043AD9D3013A11F8013B00F86F
:10108000013BF9D20B7803704B7843708B788370F7
:1010900060467047000000000000000000000000F3
:1010A0000000000000000000000000000000000040
:1010B0000000000000000000000000000000000030
:1010C00030B490F800F020F007016FF0000C10F041
:1010D000070491F820F040F048804FF000046FF0D2
:1010E0000700D1E9002391F840F000F1080082FAEE
:1010F0004CF2A4FA8CF283FA4CF3A2FA8CF34BBBB9
:10110000D1E9022382FA4CF200F10800A4FA8CF231
:1011100083FA4CF3A2FA8CF3E3B9D1E9042382FAFF
:101120004CF200F10800A4FA8CF283FA4CF3A2FA14
:101130008CF37BB9D1E9062301F1200182FA4CF24C
:1011400000F10800A4FA8CF283FA4CF3A2FA8CF3B3
:10115000002BC6D0002A04BF04301A4612BAB2FAD5
:1011600082F200EBD20030BC7047D1E9002304F0DA
:101170000305C4F100004FEAC50514F0040F91F80F
:1011800040F00CFA05F562EA05021CBF63EA0503AC
:1011900062464FF00004AAE74FF0FF3C06E000BFB4
:1011A0004FF0010C02E000BF4FF0010C4DF804CDF0
:1011B0004FEA410C7FEA6C5C4FEA430C18BF7FEAB0
:1011C0006C5C1BD001B050EA410C0CBF52EA430CDE
:1011D00091EA030F02BF90EA020F0020704710F15E
:1011E000000F91EA030F58BF994208BF90422CBFED
:1011F000D8176FEAE37040F0010070474FEA410CE6
:101200007FEA6C5C02D150EA013C07D14FEA430C03
:101210007FEA6C5CD6D152EA033CD3D05DF8040B74
:10122000704700BF8446104662468C4619466346A6
:1012300000E000BF01B5FFF7B7FF002848BF10F17D
:10124000000F01BD4DF808EDFFF7F4FF0CBF0120C2
:1012500000205DF808FB00BF4DF808EDFFF7EAFF3E
:1012600034BF012000205DF808FB00BF4DF808EDF9
:10127000FFF7E0FF94BF012000205DF808FB00BFEE
:101280004DF808EDFFF7CEFF94BF012000205DF878
:1012900008FB00BF4DF808EDFFF7C4FF34BF012085
:1012A00000205DF808FB00BF4FEA410C7FEA6C5C50
:1012B00002D150EA013C0AD14FEA430C7FEA6C5C50
:1012C00002D152EA033C02D14FF0000070474FF0C8
:1012D000010070474FEA410212F5001215D211D5F4
:1012E0006FF47873B3EB625212D94FEAC12343F023
:1012F000004343EA505311F0004F23FA02F018BFA5
:10130000404270474FF00000704750EA013005D16D
:1013100011F0004008BF6FF0004070474FF0000030
:10132000704700BF0348044B834202D0034B03B114
:1013300018477047F8060020F8060020000000005B
:101340000548064B1B1AD90F01EBA301491002D027
:10135000034B03B118477047F8060020F806002039
:101360000000000010B5064C237843B9FFF7DAFF00
:10137000044B13B10448AFF300800123237010BD68
:10138000F806002000000000E438010808B5054B0D
:101390001BB105490548AFF30080BDE80840FFF7E1
:1013A000CFBF00BF00000000FC060020E4380108A9
:1013B00008B50D480D4B0360032343600023836091
:1013C000C3604FF4102202614FF4001242610376B1
:1013D00043768376C3760377437700F073FA00B9D8
:1013E00008BD00F0BBF8FBE71407002000640040D4
:1013F00010B588B0002303930493059306930793D5
:1014000002681C4B9A4201D008B010BD0024019420
:1014100003F5EA331A6C42F000721A641A6C02F097
:1014200000720192019A02941A6B42F008021A6348
:101430001B6B03F008030293029B03230393022216
:10144000049206930923079303A90B4800F082FE38
:1014500022460521132000F069FE132000F076FEDD
:1014600022460521142000F061FE142000F06EFEDB
:10147000CAE700BF00640040000C0240034B036059
:10148000034B0B6080231360704700BF3C090020B2
:101490003C07002010B588B00DF1040C074C0FCCB0
:1014A000ACE80F0094E807008CE80700002101A8D1
:1014B00001F01BFC024B186008B010BD0039010898
:1014C0009009002030B589B0002403940494059459
:1014D000069407940094194B1A6B42F001021A63A8
:1014E0001A6B02F001020092009A01941A6B42F00A
:1014F00008021A631A6B02F008020192019A029420
:101500001A6B42F080021A631B6B03F08003029394
:10151000029B0B4D22464FF4E051284600F010FF8D
:101520004FF4E0530393012304930223059306949D
:1015300003A9284600F00EFE09B030BD0038024075
:10154000001C024008B50268034B9A4200D008BD57
:1015500000F0A6F9FBE700BF0020004072B6FEE7EE
:1015600000B595B03022002108A80DF03FF9002306
:10157000039304930593069307930193204A116CF8
:1015800041F080511164126C02F080520192019A74
:1015900002931C4B1A6842F480421A601B6803F4E1
:1015A00080430293029B012308934FF480330993F5
:1015B00002230E934FF480020F9206221092A8226B
:1015C000119212930423139308A800F0BFFE98B958
:1015D0000F23039302230493002305934FF4A05396
:1015E00006934FF480530793052103A801F0FEF8FA
:1015F00020B915B05DF804FBFFF7B0FFFFF7AEFFB1
:10160000003802400070004008B500F02FF9FFF7E5
:10161000A7FFFFF757FFFFF7CBFEFFF73BFF01F0F8
:101620005FFBFEE700B583B0002200920D4B596CC2
:1016300041F480415964596C01F480410091009952
:101640000192196C41F0805119641B6C03F08053B6
:101650000193019B0F216FF0010000F067FD03B0C3
:101660005DF804FB0038024030B589B00446002321
:101670000193214B1A6C42F480721A641B6C03F4C0
:1016800080730193019B02A903A801F075F9069BE1
:10169000CBB901F061F90346184AA2FB03239B0C66
:1016A000013B1748174A026040F2E732C2604360CC
:1016B000002303618360836101F0DEFA054630B1E7
:1016C000284609B030BD01F047F94300E4E70C4873
:1016D00001F072F905460028F2D12D2000F036FD08
:1016E0000F2C01D90125EBE7002221462D2000F027
:1016F0001DFD054B1C60E3E70038024083DE1B4301
:10170000940900200020004010000020FEE7FEE7C2
:10171000FEE7FEE7FEE7704708B5024800F08AFBE7
:1017200008BD00BF1407002008B5024800F082FB86
:1017300008BD00BF1407002008B5024801F084F975
:1017400008BD00BF940900200120704708B50DF0C6
:10175000F7F9162303604FF0FF3008BD08B54FF0CE
:10176000FF31FFF7F3FFFEE770B50C461646002584
:1017700006E0AFF30080214601F8010B01350C466D
:10178000B542F6DB304670BD70B50C4616460025F6
:1017900004E014F8010BAFF300800135B542F8DB2B
:1017A000304670BD4FF0FF3070474FF400534B6030
:1017B00000207047012070470020704710B5034695
:1017C0000C4A0D490D48006840B10C4800680344BC
:1017D000521A934206D8094A136010BD0748084CB4
:1017E0000460F2E70DF0ACF90C2303604FF0FF301A
:1017F000F3E700BF0000022000060000E00900201F
:10180000884B0020034AD2F8883043F47003C2F8B2
:101810008830704700ED00E0DFF834D0FFF7F2FFCA
:101820000C480D490D4A002302E0D458C45004333B
:10183000C4188C42F9D30A4A0A4C002301E0136011
:101840000432A242FBD30DF081F9FFF7DDFE7047B1
:101850000000022000000020F8060020B05401081B
:10186000F8060020884B0020FEE7000008B50B4B6F
:101870001A6842F400721A601A6842F480621A60B0
:101880001A6842F480721A60032000F03DFC0F20B9
:10189000FFF7EAFEFFF7C6FE002008BD003C02404D
:1018A000034A1168034B1B780B441360704700BF59
:1018B000E40900200C000020014B1868704700BFAD
:1018C000E4090020002800F0A18038B5044690F813
:1018D0002030D3B12268136843F001031360FFF78F
:1018E000EBFF054623685A6812F0010F10D1FFF78D
:1018F000E3FF401B0A28F5D9636A43F400336362AF
:10190000052384F82030012038BDFFF771FDE1E7A1
:101910001A6822F002021A60FFF7CEFF054623681C
:101920005A6812F0020F0DD0FFF7C6FF401B0A28BD
:10193000F5D9636A43F400336362052384F82030E9
:101940000120E1E7227E012A3DD01A6822F08002C0
:101950001A60637E012B3BD02268136823F040039A
:101960001360A37E012B39D02268136823F0200373
:101970001360E37E012B37D02268136843F0100315
:101980001360237F012B35D02268136823F00803EE
:101990001360637F012B33D02268136823F00403A4
:1019A0001360A368E2681343226913436269134317
:1019B0006268013A21681343CB6100206062012311
:1019C00084F82030A0E71A6842F080021A60C0E76D
:1019D0002268136843F040031360C2E7226813686B
:1019E00043F020031360C4E72268136823F0100358
:1019F0001360C6E72268136843F008031360C8E762
:101A00002268136843F004031360CAE7012070479B
:101A100090F82030013BDBB2012B05D9436A43F437
:101A2000802343620120704730B5464BD3F8002233
:101A300042F00102C3F80022D3F8002222F47C52C3
:101A4000C3F80022D3F80022486A42EA0022C3F811
:101A500000224A6902F01F02012000FA02F2D3F8C4
:101A60001C026FEA020C20EA0200C3F81C02CB69D8
:101A7000C3B9344BD3F80C020CEA0000C3F80C02D3
:101A80008C884869CD6844EA0544483043F83040C2
:101A90008C68088840EA04404C6904F1480E03EB66
:101AA000CE035860CB69012B1ED08B69002B33D13C
:101AB0002448D0F804320CEA0303C0F804320B695E
:101AC0008BBB2048D0F814320CEA0303C0F8143260
:101AD0000B6A012B2ED01B4AD2F8003223F00103EF
:101AE000C2F80032002030BD164BD3F80C02104370
:101AF000C3F80C028C8848690D6844EA05444830F4
:101B000043F8304088894C698D6840EA0540483484
:101B100003EBC4035860C8E70A48D0F80432134303
:101B2000C0F80432CBE70748D0F814321343C0F8AA
:101B30001432CDE70349D1F81C321343C1F81C32EB
:101B4000C9E700BF0064004070B5044690F820501B
:101B5000EDB2012D06D0436A43F400234362012510
:101B6000284670BD022380F820300268136823F0F5
:101B700001031360FFF7A0FE064623685B6813F0BD
:101B8000010F0CD0FFF798FE831B0A2BF5D9636A6F
:101B900043F400336362052384F82030E0E7002536
:101BA0006562DDE730B590F820C00468A4680CF1E8
:101BB000FF3C5FFA8CFCBCF1010F62D814F0E05FCF
:101BC00059D0C4F3016C012404FA0CF41C608B6836
:101BD000002B3DD10D68CB68046843EA45550CF1F4
:101BE00018031B01E55003680C690CF1180E03EB98
:101BF0000E135C600B7D012B35D0D17993791B04DA
:101C000043EA0163517943EA0123147901682343CC
:101C100001EB0C11C1F88C31D17893781B0443EAA5
:101C20000163517843EA0123117802680B4302EB08
:101C30000C12C2F8883102680CF1180C4FEA0C1C27
:101C400052F80C3043F0010342F80C3000201DE044
:101C50004C6843EAC403CC6823430CF11804240104
:101C600005682B51BFE7036803EB0E13596841F475
:101C700080715960C1E7436A43F400134362012055
:101C800004E0436A43F480234362012030BD90F8AE
:101C900020C00CF1FF3C5FFA8CFCBCF1010F00F29C
:101CA000A58030B451B90468E46814F0030F10D172
:101CB000436A43F40013436201207EE00468246910
:101CC00014F0030F05D1436A43F40013436201206B
:101CD00073E0056801F11B0424012C5904F004048D
:101CE0009460002C6BD1056801F11B0424012C5970
:101CF000640D1460046801F11B0C4FEA0C1C54F8CD
:101D00000C4004F00204D4600468A444DCF80450DD
:101D100015F0080F5BD008241461046801F11B0C56
:101D200004EB0C146468C4F307249461046804EBA6
:101D30000C146468240C5461026802EB0112D2F89E
:101D4000B8211A70026802EB0112D2F8B821C2F36E
:101D500007225A70026802EB0112D2F8B821C2F3CE
:101D600007429A70026802EB0112D2F8B821120EF3
:101D7000DA70026802EB0112D2F8BC211A71026813
:101D800002EB0112D2F8BC21C2F307225A71026899
:101D900002EB0112D2F8BC21C2F307429A71026829
:101DA00002EB0112D2F8BC21120EDA71C1B902683D
:101DB000D36843F02003D360002030BC704705682F
:101DC00001F11B0424012C59E408546092E701F14D
:101DD0001B0504EB0514646804F00F0414619CE710
:101DE0000268136943F020031361E5E7436A43F493
:101DF000802343620120704790F82030013BDBB222
:101E0000012B05D9436A43F48023436201207047C4
:101E1000026853690B435361002070477047704755
:101E200070477047704770477047704770477047FA
:101E3000704770472DE9F84F054603685C69D3F891
:101E400004809F68D3F80CA0D3F81090D3F818B092
:101E500014F001063BD017F0010616D001229A605B
:101E600017F0020F08D117F0040F0CD117F0080675
:101E700006D04FF4805608E0FFF7D0FF002604E0BC
:101E8000FFF7CFFF01E04FF4006617F4807F0DD01D
:101E90002B684FF480729A6017F4007F40F09680B0
:101EA00017F4806F00F0968046F4005617F4803FD8
:101EB0000DD02B684FF480329A6017F4003F40F049
:101EC000938017F4802F00F0938046F4004614F0BE
:101ED000080F07D01AF0100F04D046F400762B68D4
:101EE0001022DA6014F0040F03D01AF0080F40F04B
:101EF000898014F0020F05D02B68DB6813F0030F04
:101F000040F0878014F0400F07D019F0100F04D074
:101F100046F480662B6810221A6114F0200F02D05C
:101F200019F0080F79D114F0100F04D02B681B6939
:101F300013F0030F78D114F4003F02D018F0100F03
:101F400076D114F4803F02D018F0080F77D114F442
:101F5000004F37D018F0040F31D014F4807F04D034
:101F60001BF0010F01D046F0010614F4007F04D0ED
:101F70001BF0020F01D046F0020614F4806F04D06B
:101F80001BF0040F01D046F0040614F4006F16D0C5
:101F90001BF0700B13D0BBF1400F66D056D8BBF1CD
:101FA000200F5CD0BBF1300F5CD0BBF1100F01D122
:101FB00046F008062A68936923F0700393612B6842
:101FC00004225A60002E56D1BDE8F88F2846FFF74C
:101FD00026FF6BE717F4006F02D046F4804665E7F2
:101FE0002846FFF71FFF61E72846FFF719FF6EE756
:101FF00017F4002F02D046F4803668E72846FFF732
:1020000012FF64E72B680822DA602846FFF70CFF0E
:102010006FE7284602F0F0F974E72B6808221A618E
:102020002846FFF703FF7EE72846FFF7FEFE82E71C
:102030002B6810225A602846FFF7F9FE81E72B68CB
:1020400008225A602846FFF7F3FE80E7BBF1500FE5
:102050000ED0BBF1600FADD146F48076AAE746F012
:102060001006A7E746F02006A4E746F04006A1E7E1
:1020700046F080069EE76B6A33436B622846FFF7A3
:10208000D8FEA1E7002807DB00F01F02400901236A
:102090009340024A42F82030704700BF00E100E060
:1020A000002808DB0901C9B200F1604000F5614079
:1020B00080F80013704700F00F000901C9B2014B0E
:1020C0001954704714ED00E000B500F00700C0F1AE
:1020D000070CBCF1040F28BF4FF0040C031D062BA6
:1020E0000FD9C31E4FF0FF3E0EFA0CF021EA00019B
:1020F00099400EFA03FE22EA0E0241EA02005DF860
:1021000004FB0023EEE70000074AD36823F4E063F2
:102110001B041B0C000200F4E060034343F0BF63A8
:1021200043F40033D360704700ED00E010B504467F
:10213000054BD868C0F30220FFF7C6FF01462046D2
:10214000FFF7AEFF10BD00BF00ED00E008B5FFF7E0
:1021500099FF08BD00230F2B00F2E98070B582B013
:1021600065E085684FEA430E032404FA0EF425EA7D
:102170000405CC6804FA0EF42C438460446824EA15
:1021800002044A68C2F300129A40224342605CE0B3
:10219000DC08083450F8242003F00705AD004FF0A8
:1021A0000F0E0EFA05FE22EA0E0E0A69AA4042EA56
:1021B0000E0240F824205CE0072200E0002202FA30
:1021C0000EF22A4302345A4D45F82420594A9468A5
:1021D0006FEA0C0224EA0C054E6816F4801F01D049
:1021E0004CEA0405534CA560E46802EA04054E6815
:1021F00016F4001F01D04CEA04054E4CE5606468FB
:1022000002EA04054E6816F4003F01D04CEA0405CA
:10221000484C6560246822404D6815F4803F01D029
:102220004CEA0402434C226001330F2B7DD801227B
:102230009A400C6804EA020C32EA0404F4D14C68B7
:1022400004F00304013C012C8BD94A6802F003021C
:10225000032A09D0C4685D000322AA4024EA0204CC
:102260008A68AA402243C2604A6802F00302022A36
:102270008ED004684FEA430E032202FA0EF224EADB
:1022800002044A6802F0030202FA0EF222430260DC
:102290004A6812F4403FC7D000220192264A546C8B
:1022A00044F480445464526C02F480420192019AD6
:1022B0009C08A51C1E4A52F8255003F0030E4FEA55
:1022C0008E0E0F2202FA0EF225EA02051B4A9042F8
:1022D0003FF474AF02F5806290421AD002F580623A
:1022E000904218D002F58062904216D002F58062CA
:1022F000904214D002F58062904212D002F58062C2
:10230000904210D002F5806290423FF455AF08220F
:1023100055E7012253E7022251E703224FE7042247
:102320004DE705224BE7062249E702B070BD704732
:1023300000380140003C01400038024000000240EB
:102340000AB181617047090481617047002800F07B
:10235000E08170B582B00446036813F0010F3BD0F2
:102360009F4B9B6803F00C03042B2CD09C4B9B6869
:1023700003F00C03082B21D06368B3F5803F4FD0E6
:10238000B3F5A02F52D0964B1A6822F480321A600F
:102390001A6822F480221A606368002B50D0FFF77D
:1023A0008BFA05468E4B1B6813F4003F14D1FFF7E0
:1023B00083FA401B6428F5D90320B1E1884B5B68A0
:1023C00013F4800FD8D0864B1B6813F4003F03D062
:1023D0006368002B00F09F81236813F0020F54D034
:1023E0007F4B9B6813F00C0F3ED07D4B9B6803F036
:1023F0000C03082B33D0E368002B68D0794B012203
:102400001A60FFF759FA0546754B1B6813F0020F67
:1024100054D1FFF751FA401B0228F5D903207FE180
:102420006F4A136843F480331360B5E76C4B1A6846
:1024300042F480221A601A6842F480321A60ABE7D4
:10244000FFF73AFA0546664B1B6813F4003FC3D00A
:10245000FFF732FA401B6428F5D9032060E1604B96
:102460005B6813F4800FC6D15D4B1B6813F0020F3D
:1024700003D0E368012B40F05081594A136823F0E0
:10248000F803216943EAC1031360236813F0080FBE
:1024900042D063696BB3534B0122C3F8802EFFF720
:1024A0000BFA05464E4B5B6F13F0020F34D1FFF76A
:1024B00003FA401B0228F5D9032031E1484A13688A
:1024C00023F0F803216943EAC1031360DDE7454BBC
:1024D00000221A60FFF7F0F90546414B1B6813F024
:1024E000020FD2D0FFF7E8F9401B0228F5D90320EC
:1024F00016E13C4B0022C3F8802EFFF7DDF90546BC
:10250000374B5B6F13F0020F06D0FFF7D5F9401B76
:102510000228F5D9032003E1236813F0040F77D0D4
:102520002F4B1B6C13F0805F33D1002301932C4B96
:102530001A6C42F080521A641B6C03F080530193B2
:10254000019B0125284B1B6813F4807F23D0A368CF
:10255000012B34D0052B38D0214B1A6F22F0010209
:102560001A671A6F22F004021A67A368002B3DD085
:10257000FFF7A2F906461A4B1B6F13F0020F46D164
:10258000FFF79AF9801B41F288339842F3D9032070
:10259000C6E00025D6E7144A136843F4807313603D
:1025A000FFF78AF90646104B1B6813F4807FCED1E3
:1025B000FFF782F9801B0228F5D90320B0E0084A12
:1025C000136F43F001031367CFE7054B1A6F42F017
:1025D00004021A671A6F42F001021A67C5E700BFCA
:1025E000003802400000474200700040FFF764F9E5
:1025F0000646524B1B6F13F0020F08D0FFF75CF931
:10260000801B41F288339842F3D9032088E0EDB96A
:10261000A369002B00F08380484A926802F00C0204
:10262000082A51D0022B17D0454B00221A66FFF71B
:1026300043F90446414B1B6813F0007F42D0FFF77B
:102640003BF9001B0228F5D9032069E03B4A136CD3
:1026500023F080531364DBE7394B00221A66FFF73F
:102660002BF90546354B1B6813F0007F06D0FFF7AA
:1026700023F9401B0228F5D9032051E0E369226ABF
:102680001343626A43EA8213A26A5208013A43EA98
:102690000243E26A43EA0263284A5360284B01225C
:1026A0001A66FFF709F90446244B1B6813F0007FF4
:1026B00006D1FFF701F9001B0228F5D903202FE00E
:1026C00000202DE000202BE0012B2BD01B4B5B6862
:1026D00003F48001E269914226D103F03F02216AAE
:1026E0008A4223D1616A47F6C0721A40B2EB811F59
:1026F0001ED103F44031A26A5208013AB1EB024FF5
:1027000018D103F07063E26AB3EB026F14D10020BA
:1027100006E001207047012002E0012000E00020D7
:1027200002B070BD0120FBE70120F9E70120F7E7C7
:102730000120F5E70120F3E70120F1E7003802402E
:102740000000474208B5264B9B6803F00C03042B9E
:1027500041D0082B41D1224B5A6802F03F025B68FE
:1027600013F4800F12D01E4B5968C1F388111D4815
:102770000023A1FB0001FEF741F9194B5B68C3F38D
:10278000014301335B00B0FBF3F008BD144B586804
:10279000C0F388104FEA401CBCEB000C6EEB0E0E31
:1027A0004FEA8E1343EA9C634FEA8C11B1EB0C01A4
:1027B00063EB0E03DB0043EA5173C90011EB000C1D
:1027C00043F10003990200234FEA8C2041EA9C5117
:1027D000FEF714F9D1E70348D7E70348D5E700BF70
:1027E00000380240001BB7000024F400002800F06D
:1027F0009B8070B50D4604464F4B1B6803F00703E2
:102800008B4208D2CBB24C4A1370136803F0070313
:102810008B4240F08B80236813F0020F17D013F027
:10282000040F04D0454A936843F4E053936023684F
:1028300013F0080F04D0414A936843F46043936057
:102840003E4A936823F0F003A1680B43936023682A
:1028500013F0010F32D06368012B21D09A1E012A98
:1028600025D9364A126812F0020F61D033498A68BE
:1028700022F0030213438B60FFF71EF806462F4B2E
:102880009B6803F00C036268B3EB820F16D0FFF76E
:1028900013F8801B41F288339842F0D9032042E0BC
:1028A000264A126812F4003FE0D101203BE0234A9F
:1028B000126812F0007FD9D1012034E01E4B1B6852
:1028C00003F00703AB4207D9EAB21B4B1A701B682F
:1028D00003F00703AB422DD1236813F0040F06D099
:1028E000164A936823F4E053E1680B43936023682E
:1028F00013F0080F07D0114A936823F4604321694D
:1029000043EAC1039360FFF71DFF0C4B9B68C3F3C1
:1029100003130B4AD35CD8400A4B18600A4B186863
:10292000FEF7A2FE002070BD012070470120FAE7EB
:102930000120F8E70120F6E7003C024000380240A1
:10294000AC4401080800002010000020014B18686A
:10295000704700BF0800002008B5FFF7F7FF044BE1
:102960009B68C3F38223034AD35CD84008BD00BFF1
:1029700000380240A44401080F2303600B4B9A68FF
:1029800002F0030242609A6802F0F00282609A68E4
:1029900002F4E052C2609B68DB0803F4E053036179
:1029A000034B1B6803F007030B60704700380240BD
:1029B000003C02407047000090F83D30DBB2012B34
:1029C00037D1022380F83D300268D36843F0010319
:1029D000D3600368194A934220D0B3F1804F1DD0D1
:1029E000A2F57C42934219D002F58062934215D041
:1029F00002F58062934211D002F5784293420DD0E5
:102A000002F57052934209D0A2F59432934205D058
:102A10001A6842F001021A60002070479A6802F0BA
:102A20000702062A07D01A6842F001021A60002045
:102A30007047012070470020704700BF0000014030
:102A4000704770477047704770B504460368DE688A
:102A50001D6915F0020F10D016F0020F0DD06FF0A7
:102A600002021A610123037703689B6913F0030FC5
:102A70005ED0FFF7E6FF0023237715F0040F12D096
:102A800016F0040F0FD023686FF004021A610223BE
:102A9000237723689B6913F4407F4FD02046FFF7CC
:102AA000D0FF0023237715F0080F12D016F0080F7F
:102AB0000FD023686FF008021A610423237723687C
:102AC000DB6913F0030F40D02046FFF7BAFF002365
:102AD000237715F0100F12D016F0100F0FD02368C7
:102AE0006FF010021A61082323772368DB6913F45F
:102AF000407F31D02046FFF7A4FF0023237715F055
:102B0000010F02D016F0010F2DD115F0800F02D069
:102B100016F0800F2FD115F0400F02D016F0400FA5
:102B200031D115F0200F02D016F0200F33D170BD37
:102B3000FFF786FF2046FFF785FF9CE72046FFF75B
:102B40007FFF2046FFF77EFFABE72046FFF778FFC9
:102B50002046FFF777FFBAE72046FFF771FF2046D0
:102B6000FFF770FFC9E723686FF001021A61204682
:102B7000FEF7E8FCC9E723686FF080021A6120467F
:102B800000F0A7F8C7E723686FF040021A612046FB
:102B9000FFF759FFC5E723686FF020021A6120464E
:102BA00000F096F8C3E700000368324A904212D062
:102BB000B0F1804F0FD0A2F57C4290420BD002F5CD
:102BC0008062904207D002F58062904203D002F505
:102BD0007842904203D123F070034A681343254A98
:102BE00090422AD0B0F1804F27D0A2F57C4290428B
:102BF00023D002F5806290421FD002F5806290429D
:102C00001BD002F57842904217D002F570529042E4
:102C100013D002F5806290420FD002F5806290429C
:102C20000BD0A2F59832904207D002F58062904214
:102C300003D002F58062904203D123F44073CA6846
:102C4000134323F080034A6913438A68C2620A6807
:102C50008262084A904203D002F58062904201D11C
:102C60000A690263026842F00402026001224261C2
:102C7000036070470000014040B310B5044690F86F
:102C80003D30F3B1022384F83D30214651F8040B66
:102C9000FFF78AFF012384F8463084F83E3084F839
:102CA0003F3084F8403084F8413084F8423084F872
:102CB000433084F8443084F8453084F83D300020B7
:102CC00010BD80F83C30FFF775FEDBE70120704750
:102CD00070477047842801D0033070470020704748
:102CE00008B500F02DFD002008BD2DE9F04387B0A8
:102CF0000E464469C4B18569B5B14768D0F8008013
:102D0000D0F81090B0F90800FFF7E4FF02950194A5
:102D1000009033464A464146384600F0A3FC0590F1
:102D2000059807B0BDE8F083446805680769B0F905
:102D30000800FFF7CFFF05AB019300903346BAB20E
:102D40002946204600F0C9FC0128E9D00020E8E728
:102D500008B500B9012000F03DFE002008BD00F1DB
:102D6000080343604FF0FF328260C36003610023B9
:102D70000360704700230361704743684B609A68A3
:102D80008A6051609960086103680133036070478D
:102D900030B40D68B5F1FF3F11D000F108031C46B7
:102DA0005B681A68AA42FAD963684B6099608C60C4
:102DB0006160086103680133036030BC70470469D7
:102DC000F2E70369416882688A60416851605A6825
:102DD000824206D0002202611A68013A1A6018681D
:102DE000704782685A60F5E782B0002301930D4B6B
:102DF0001B68B3F1FF3F08D04FF0500383F31188F5
:102E0000BFF36F8FBFF34F8FFEE74FF0500383F395
:102E10001188BFF36F8FBFF34F8F019B002BFCD046
:102E200002B070471400002008480068006880F372
:102E300008884FF0000080F3148862B661B6BFF3D3
:102E40004F8FBFF36F8F00DF00BF000008ED00E081
:102E5000DFF80C00016841F4700101607047000068
:102E600088ED00E04FF0807340F8043C21F0010150
:102E700040F8081C054B40F80C3C40F8202C6FF043
:102E8000020340F8243C4438704700BFE92D000895
:102E9000074B19680868B0E8F04F80F30988BFF362
:102EA0006F8F4FF0000080F311887047AFF3008000
:102EB000384700204FF0500383F31188BFF36F8F22
:102EC000BFF34F8F0B4A136801331360012B00D0FF
:102ED00070474FF0E023D3F8043D13F0FF0FF7D015
:102EE0004FF0500383F31188BFF36F8FBFF34F8F01
:102EF000FEE700BF14000020094B1B6843B94FF0E8
:102F0000500383F31188BFF36F8FBFF34F8FFEE73A
:102F1000013B034A13600BB983F31188704700BF6C
:102F2000140000200000000000000000000000006D
:102F3000EFF30980BFF36F8F154B1A681EF0100F67
:102F400008BF20ED108A20E9F04F10602DE909003C
:102F50004FF0500080F31188BFF34F8FBFF36F8F96
:102F600000F05EFD4FF0000080F3118809BC196885
:102F70000868B0E8F04F1EF0100F08BFB0EC108AE0
:102F800080F30988BFF36F8F704700BFAFF30080F5
:102F90003847002008B54FF0500383F31188BFF382
:102FA0006F8FBFF34F8F00F00DFC28B14FF0E0237F
:102FB0004FF08052C3F8042D002383F3118808BD1D
:102FC0004FF0E022002313619361054B1B68054914
:102FD000A1FB03139B09013B536107231361704756
:102FE00008000020D34D62104FF0E023D3F8002DED
:102FF0003D4B9A421CD04FF0E023D3F8002D3B4BC1
:103000009A421ED030B583B0394B1A78D2B20192B1
:10301000FF221A701B78DBB28DF803309DF8033065
:1030200003F05003334A1370334B07221A601BE03E
:103030004FF0500383F31188BFF36F8FBFF34F8FAF
:10304000FEE74FF0500383F31188BFF36F8FBFF398
:103050004F8FFEE7284A1368013B13609DF8033049
:103060005B00DBB28DF803309DF8033013F0800F66
:10307000F0D1214B1B68032B08D04FF0500383F392
:103080001188BFF36F8FBFF34F8FFEE71B021A4A01
:10309000136003F4E0631360019BDBB2144A137006
:1030A0004FF0E024D4F8203D43F47003C4F8203DF1
:1030B000D4F8203D43F07043C4F8203DFFF780FF73
:1030C00000250E4B1D60FFF7C3FED4F8343F43F0DC
:1030D0004043C4F8343FFFF7A7FE00F0A1FCFFF720
:1030E00083FE284603B030BD71C20F4170C20F414C
:1030F00000E400E0EC090020E809002014000020B2
:10310000124A12F0070F1ED0D11D21F00701C1F5A0
:10311000705313440A460E48026000214160134474
:10312000083B23F007030B48036059601960991AA4
:1031300051601360084B1960084B1960084B4FF041
:1031400000421A6070474FF47053E4E7100A002001
:10315000080A0020040A0020FC090020000A0020C0
:10316000F0090020164B1A461B688342FBD35168B6
:1031700002EB010C844509D0416800EB010C63456A
:1031800009D00360904219D0106070474068014434
:1031900051601046F0E710B40A4C2468A3420BD0EB
:1031A0005B681944416013681B680360904200D05B
:1031B00010605DF8044B70470460F7E7704700BF8C
:1031C000080A0020040A002038B5044600F0F2FA8C
:1031D000384B1B68B3B1384B1B681C4250D1002CD4
:1031E00050D004F1080214F0070F02D022F00702B9
:1031F0000832002A55D0314B1B68934253D33049D3
:103200000C6804E0FFF77CFFE5E721461C46636895
:10321000934202D22368002BF7D1264B1B68A342AE
:1032200043D00D68083523680B6063689B1A102B28
:1032300010D9A01810F0070F08D04FF0500383F3F7
:103240001188BFF36F8FBFF34F8FFEE7436062605B
:10325000FFF788FF626819490B689B1A0B601949D0
:1032600009688B4201D217490B60134B1B6813434B
:10327000636000232360144A13680133136002E083
:10328000002500E0002500F029FB15F0070F0ED007
:103290004FF0500383F31188BFF36F8FBFF34F8F4D
:1032A000FEE70025EFE70025EDE70025EBE72846E0
:1032B00038BD00BF040A0020F0090020000A0020E9
:1032C000080A0020FC090020F8090020002834D05A
:1032D00038B50446A0F1080550F8043C174A1268B6
:1032E000134208D14FF0500383F31188BFF36F8F5F
:1032F000BFF34F8FFEE750F8081C41B14FF0500369
:1033000083F31188BFF36F8FBFF34F8FFEE723EA7C
:10331000020340F8043C00F04DFA54F8041C084A3B
:1033200013680B4413602846FFF71CFF054A136817
:103330000133136000F0D2FA38BD7047F009002065
:10334000000A0020F4090020084B1B681B6823B901
:10335000074B4FF0FF321A607047044B1B68DB6865
:10336000DB685A68024B1A60704700BF8046002035
:10337000184600202DE9F04707469846089DDDF8DD
:1033800024900A9C266B02F18042013A06EB8206E9
:1033900026F00706C1B308464FF0000CBCF10F0F32
:1033A00009D810F80C2004EB0C0383F8342012B178
:1033B0000CF1010CF2E7002384F84330062D00D90C
:1033C0000625E56265644FF0000AC4F848A0201D98
:1033D000FFF7D0FC04F11800FFF7CCFC2461C5F125
:1033E0000705A5616462C4F84CA084F850A0424669
:1033F00039463046FFF736FD2060B9F1000F01D0A5
:10340000C9F80040BDE8F087002384F83430D5E7E0
:1034100038B5002407E004EB840293000E481844FA
:10342000FFF79DFC0134062CF5D90C4D2846FFF71B
:1034300096FC0B4C2046FFF792FC0A48FFF78FFCE6
:103440000948FFF78CFC0948FFF789FC084B1D6011
:10345000084B1C6038BD00BFAC46002098460020D9
:103460008446002068460020544600203C46002048
:10347000804600207C46002010B50446FFF71AFD68
:10348000214A136801331360204B1B685BB1204B4A
:103490001B686BB91D4B1B68DA6AE36A9A4207D84E
:1034A0001A4B1C6004E0194B1C601368012B28D0D8
:1034B000184A136801331360E06A01238340164AF7
:1034C00011680B43136000EB8000211D134B03EBCD
:1034D0008000FFF752FCFFF70FFD0D4B1B687BB11F
:1034E0000A4B1B68DA6AE36A9A4209D24FF0E0237A
:1034F0004FF08052C3F8042DBFF34F8FBFF36F8F8F
:1035000010BDFFF785FFD3E738460020384700207D
:103510002C4600201C46002030460020AC460020EF
:1035200010B5044690F8513063B1012B11D0022B35
:103530000ED04FF0500383F31188BFF36F8FBFF3AA
:103540004F8FFEE7006BFFF7C1FE2046FFF7BEFE80
:1035500010BDFFF7BBFEFBE70F4B1B68D3B110B5E7
:10356000FFF7A8FC0D4BDB68DC68201DFFF729FC8A
:103570000B4A1368013B1360074A1368013B136051
:10358000FFF7BAFC2046FFF7CBFF034B1B68002B6D
:10359000E6D110BD704700BF5046002054460020C1
:1035A0003846002008B5FFF7D7FF074B1B68012BF3
:1035B000F9D94FF0E0234FF08052C3F8042DBFF348
:1035C0004F8FBFF36F8FEEE7AC46002070B5044617
:1035D0000D461D4B1E681D4B18680430FFF7F1FBAC
:1035E00048B91A4B1B68DB6A01229A4018490B68DC
:1035F00023EA02030B60B4F1FF3F0DD03444134BB8
:103600001B685C60A64210D9124B18680F4B1968F2
:103610000431FFF7BDFB70BD002DEFD00B4B1968D7
:1036200004310D48FFF7A9FBF5E70C4B1868074B71
:1036300019680431FFF7ACFB094B1B68A342EAD9B8
:10364000074B1C60E7E700BF3446002038470020E6
:10365000304600207C4600203C460020804600206A
:103660001846002030B587B00B9C7CB10C9DB5B1DD
:1036700054250495049D542D1AD04FF0500383F324
:103680001188BFF36F8FBFF34F8FFEE74FF05003EA
:1036900083F31188BFF36F8FBFF34F8FFEE74FF0B7
:1036A000500383F31188BFF36F8FBFF34F8FFEE793
:1036B000049D0C9D2C63022485F851400024039442
:1036C000029505AC01940A9C0094FFF753FE0C98F8
:1036D000FFF7D2FE059807B030BD2DE9F04385B065
:1036E0000746884614461E469000FFF76DFD08B356
:1036F00081465420FFF768FD0546A8B1C0F8309018
:10370000002380F85130039302900D9B01930C9B92
:1037100000933346224641463846FFF72BFE2846A3
:10372000FFF7AAFE012007E04846FFF7CFFD4FF064
:10373000FF3001E04FF0FF3005B0BDE8F08300003E
:1037400010B588B000240594069407AA06A905A818
:10375000FDF794FE059B0293069B0193009423467C
:10376000079A0E490E48FFF77DFF0E4B186090B187
:103770004FF0500383F31188BFF36F8FBFF34F8F68
:10378000094B4FF0FF321A60084B01221A60084BB8
:103790001C60FFF729FC08B010BD00BF24390108E8
:1037A000A535000814460020184600202C460020AD
:1037B00034460020024A136801331360704700BF8B
:1037C00010460020F8B53A4B1B68002B69D1394BE5
:1037D0001D6801351D60C5B9374B1B681B6843B1B7
:1037E0004FF0500383F31188BFF36F8FBFF34F8FF8
:1037F000FEE7314A1168314B186810601960304A91
:10380000136801331360FFF79FFD2E4B1B68AB421B
:103810003DD900272C4B1B68DB6A03EB83039A001E
:103820002A4B9B58012B00D90127294B1B68002BE1
:103830003CD001273AE001271F4B1B681B6843B3AC
:103840001D4B1B68DB68DC6863689D4226D3261D20
:103850003046FFF7B6FAA36A1BB104F11800FFF770
:10386000B0FAE36A01229A401A49086802430A60E2
:1038700003EB83039A00314614481044FFF77DFAA6
:10388000E26A114B1B68DB6A9A42D4D2D4E7002764
:10389000D2E70C4B4FF0FF321A60BBE7094A1360C6
:1038A000B8E70D4A13680133136000273846F8BDA6
:1038B0001046002034460020804600207C46002030
:1038C000204600201846002038470020AC46002043
:1038D00024460020304600202846002038B5354BCD
:1038E0001B6843B94FF0500383F31188BFF36F8F08
:1038F000BFF34F8FFEE7FFF7DDFA2E4B1A68013A50
:103900001A601B68002B4FD12B4B1B680BB900248E
:103910004BE00024294B1B681BB3284BDB68DC6899
:1039200004F11800FFF74DFA251D2846FFF749FA64
:10393000E06A01238340224A11680B43136000EBC5
:10394000800029461F4B03EB8000FFF716FAE26A5E
:103950001D4B1B68DB6A9A42DCD31C4B01221A60A8
:10396000D8E70CB1FFF7F0FC194B1C6884B9174B72
:103970001C68D4B14FF0E0234FF08052C3F8042DFF
:10398000BFF34F8FBFF36F8F01240EE0013C07D0D0
:10399000FFF718FF0028F9D00C4B01221A60F5E759
:1039A0000B4B00221A60E2E70024FFF7A5FA20463D
:1039B00038BD00BF10460020384600206846002071
:1039C00030460020AC460020384700202446002026
:1039D0002846002010B5A8B10446104B1B6843B11F
:1039E0004FF0500383F31188BFF36F8FBFF34F8FF6
:1039F000FEE7FFF7DFFE00212046FFF7E7FDFFF7B8
:103A00006DFF48B94FF0E0234FF08052C3F8042D0A
:103A1000BFF34F8FBFF36F8F10BD00BF1046002064
:103A2000204B1B681BB1204B01221A6070471E4BB4
:103A300000221A601D4B1B68B3FA83F3DBB2C3F19B
:103A40001F0303EB83018A0019498A5842B94FF0DA
:103A5000500383F31188BFF36F8FBFF34F8FFEE7DF
:103A6000134803EB83018A0002445168496851609E
:103A700003EB830C4FEA8C0208320244914209D0D6
:103A800003EB83039A000A4B13445B68DA68094B23
:103A90001A607047486862469100054A0A445060BF
:103AA000EEE700BF104600202446002030460020EC
:103AB000AC4600203847002001717047024A02607E
:103AC00000220271704700BFD4440108014B03601B
:103AD000704700BFD444010810B50446024B036090
:103AE000FFF7F4FF204610BD1445010810B52DED79
:103AF000028B044680F80B11022904D001291ED044
:103B0000BDEC028B10BDDFED1C8A9FED1C8AF0EE30
:103B1000681AB0EE481AF0EE480AB0EE480A78305B
:103B200000F01CFCF0EE681AB0EE481AF0EE480AFD
:103B3000B0EE480A04F1080000F010FCE0E7DFED09
:103B40000E8A9FED0E8AF0EE681AB0EE481AF0EE7B
:103B5000480AB0EE480A783000F000FCF0EE681A2F
:103B6000B0EE481AF0EE480AB0EE480A04F1080038
:103B700000F0F4FBC4E700BF6F12833A00000000BE
:103B800010B50446054B0360FFF7A0FF4FF48871A2
:103B9000204600F04FFD204610BD00BF144501082F
:103BA000F8B504460F4616461D46FFF787FF204628
:103BB000234B40F8083B9FED230AB0EE402ADFED8F
:103BC000221AB0EE401AF0EE400A00F09DFA9FED86
:103BD0001D0AB0EE402ADFED1C1AB0EE401AF0EEDE
:103BE000400A04F1780000F08FFA04E02046FFF765
:103BF0006DFF00F021FD0020C4F8E800C4F8EC00DF
:103C0000A4F8F0000023C4F8F430C4F8F830C4F885
:103C1000FC30C4F80001C4F80401C4F80C0184F8B5
:103C20000A71C4F80C6184F809519DF8183084F8C1
:103C300008319DF81C3084F80B312046F8BD00BFD8
:103C400014450108000000006F12833A90F80A3111
:103C5000012B00D9704710B58AB090F80931049350
:103C600000230693079308230893DFED347A30EEA0
:103C7000270ADFED337A20EE270A9FED327AC0EE75
:103C8000077AFDEEE77A17EE90EAF3EE0E7A70EE21
:103C9000A70A9FED2D7A60EE870ADFED2C6AC0EE51
:103CA000A67AFDEEE77A17EE90CA21EE071ADFED4D
:103CB000286AC1EE267AFDEEE77A17EE901A61EED9
:103CC000871AF1EE046AC1EEA67AFDEEE77A17EEE6
:103CD000902AF2EE047A32EE272A22EE072AB3EE79
:103CE000047AC2EE077AFDEEE77A17EE903ACEF349
:103CF00007248DF808408DF809E0CCF30B1E8DF8F1
:103D00000AE0C1F3072E4EEA0C1C8DF80BC08DF8AB
:103D10000C10C2F30B118DF80D10C3F3072141EA0B
:103D200002128DF80E208DF80F3001AB02AA04A903
:103D3000D0F80C01FDF736FF0AB010BDDC0F49408A
:103D400000FF7F47DC0FC94000F07F450000704254
:103D50000000FA430000000070B52DED028B044610
:103D600090F80A31012B07D110EE100A94F80B31AC
:103D7000022B04D0012B54D0BDEC028B70BDFCF79C
:103D800083FB36A3D3E90023FCF720FA35A3D3E95C
:103D90000023FCF7D1FB35A3D3E90023FCF7F6FCA5
:103DA000FCF7DCFD08EE100AD4F8F400FCF76CFB1D
:103DB0002AA3D3E90023FCF709FA2AA3D3E90023B5
:103DC000FCF7BAFB29A3D3E90023FCF7DFFCFCF7DF
:103DD000C5FD04F17806F0EE480A00EE100A304600
:103DE00000F0C0F904F1080594ED3E8A304600F079
:103DF000C7FAF0EE400AB0EE480A284600F0B2F9E1
:103E0000284600F0BDFAB0EE402A9FED130AF0EE0E
:103E1000401AB0EE401AF0EE400A2046FFF716FFB7
:103E2000AAE704F10805F0EE400A94ED3E0A2846A0
:103E300000F098F9284600F0A3FAB0EE402A9FED72
:103E4000060AF0EE401AB0EE401AF0EE400A2046A4
:103E5000FFF7FCFE90E700BF000000007FBDC282BC
:103E6000FB210940182D4454FB2119407FBDC2821B
:103E7000FB21194090F80A11022900D0704700B5C3
:103E80008BB010EE102A10EE903A90F8091101F55F
:103E900080710491002106910791082108918DF805
:103EA0000820C2F307218DF80910C2F307418DF8ED
:103EB0000A10C2F307628DF80B208DF80C30C3F3A3
:103EC00007228DF80D20C3F307428DF80E20C3F3AF
:103ED00007638DF80F3001AB02AA04A9D0F80C01DA
:103EE000FDF760FE0BB05DF804FB000008B590F82C
:103EF0000A31012B0ED0022B09D03BB99FED092AC4
:103F0000F7EE001AB0EE001AFFF7A0FE08BDFFF7AB
:103F1000B1FFFBE790F80B31022BF7D1FFF71CFF45
:103F2000F4E700BF0000000090F80A21032A00D047
:103F3000704700B589B010EE103A90F8092102F5EB
:103F400000720292002204920592042206928DF8D9
:103F50000430C3F307228DF80520C3F307428DF820
:103F60000620C3F307638DF807306B4601AA02A948
:103F7000D0F80C01FDF716FE09B05DF804FB000057
:103F800008B590F80A31032B0FD8DFE803F00219C7
:103F90000F169FED0F2AF7EE001AB0EE421AF0EE60
:103FA000400AB0EE420AFFF751FE08BDF0EE400AAB
:103FB0009FED070AFFF75EFFF7E7FFF7B5FFF4E7AE
:103FC00090F80B31012BF0D1FFF7C6FEEDE700BFF3
:103FD000000000004A788B7843EA022306EE903A0C
:103FE00091F803C00B791A0942EA0C1207EE102A65
:103FF0001B0203F470634A79134307EE903AF8EE1C
:10400000E66A9FED186A66EE866ADFED175A86EE5D
:10401000A56ADFED166A76EE666AC0ED3D6AB8EE17
:10402000C77ADFED136A27EE267A9FED126AC7EE94
:10403000066AB3EE0E7A36EEC77A80ED3E7AF8EE77
:10404000E77AB3EE047A67EE877A87EE867AF2EE45
:10405000047A77EE677AC0ED3F7A0B781B09A0F8F7
:10406000F0307047DC0FC94000FF7F47DC0F49404C
:104070000000704200F07F4500B58BB090F80A3127
:10408000022B2ED025D8012B02D890F809310493A9
:1040900000230693079308230893FF238DF8083025
:1040A0008DF809308DF80A308DF80B308DF80C3012
:1040B0008DF80D308DF80E30FC238DF80F3001ABEC
:1040C00002AA04A9D0F80C01FDF76CFD0BB05DF855
:1040D00004FB032BDCD190F8093103F50073049342
:1040E000D6E790F8093103F580730493D0E780F8A0
:1040F0000911704780F80811704780F80A1170475D
:10410000C0F80C117047000080ED010AC0ED020AF2
:1041100080ED031AC0ED041A80ED002A00224261EE
:104120008261C2610262426282620263C2620C49BF
:1041300041638163002180F83C10026480F84410E0
:10414000826480F84C10026580F854108265C26564
:10415000026680F86410826680F86C10704700BFB9
:104160000050C34690ED055A80ED065AC0ED000A96
:1041700090F8643003B370EEC00AD0ED1A7AF4EE12
:10418000E70AF1EE10FA06DB77EEA77A70EEE70A9F
:10419000C0ED050A14E0B1EE677AF4EEC70AF1EE5D
:1041A00010FA06D877EEA77A70EEA70AC0ED050AD6
:1041B00006E0C0ED050A03E070EEC00AC0ED050A96
:1041C00090F844308BB190ED057AD0ED127AB4EED0
:1041D000E77AF1EE10FA08D8F1EE677AB4EEE77AF2
:1041E000F1EE10FA01DB00234361D0ED076A90ED98
:1041F000057A76EE876AC0ED076AD0ED017A67EE40
:10420000277AC0ED087A90F854308BB390ED176A96
:10421000B4EEC67AF1EE10FA06DC90ED166AB4EE52
:10422000C67AF1EE10FA18D5D0ED185AB0EEC76A7A
:1042300065EE865AF7EE004A75EEA45A84EEA56A3A
:1042400026EE866AD0ED025A26EE256AD0ED045A93
:1042500026EE256A80ED096A14E090ED026A26EEEA
:10426000866AD0ED045A26EE256A80ED096A09E0D7
:1042700090ED026A26EE866AD0ED045A26EE256A93
:1042800080ED096A90F83C309BB190ED106AB4EE75
:10429000C67AF1EE10FA06DCB1EE466AB4EEC67AE2
:1042A000F1EE10FA05D50023436276EEC76AC0ED41
:1042B000076A90ED096AD0ED0E6AB4EEE66AF1EE97
:1042C00010FA2ADDC0ED096A90F86C307BB390EDEE
:1042D000037AD0ED0B6A90ED0C6A76EEC66A27EE93
:1042E000267A90ED046AC7EE066AC0ED0A6AC36AD0
:1042F000036390ED097A77EE877A90ED0A7A77EE8C
:10430000877AC0ED0B7A90ED0D7AF4EEC77AF1EE74
:1043100010FA19DD80ED0B7A7047F1EE666AB4EEA3
:10432000E66AF1EE10FACFD5C0ED096ACCE7D0ED20
:10433000036A37EE457A26EE877A90ED046AC7EE77
:10434000066AC0ED0A6AD2E7B1EE477AF4EEC77AA0
:10435000F1EE10FA01D580ED0B7A704780ED010A7D
:10436000C0ED020A80ED031AC0ED041A704780ED1B
:104370000D0A7047012380F8643080ED1A0A7047F7
:1043800090ED0B0A7047000010B582B0074C002377
:1043900001930093064A04212046FFF701FC054AD9
:1043A0000549204600F0C2F802B010BD3C4700208D
:1043B0001407002000000020D93A000810B58AB088
:1043C000012208920023069307920093019302931F
:1043D000039305930493074C69462046FDF718FBA9
:1043E0002046FDF7B1FB02212046FDF705FD0AB08E
:1043F00010BD00BF1407002002680A4B9A4200D08B
:10440000704710B588B0084C234601AA0021074820
:10441000FDF73DFC2146A4F1E800FFF7DBFD08B005
:1044200010BD00BF00640040244800201407002095
:1044300038B52DED028BFFF7C1FF4FF47A70FEF710
:1044400087FC2E4C2E492046FFF75AFE01212046BC
:10445000FFF74DFE00212046FFF74CFE01212046CC
:10446000FFF74BFE02212046FFF740FB9FED258A18
:1044700004F10805F0EE481A9FED231ADFED230A38
:104480009FED230A2846FFF769FFB2EE040A28468B
:10449000FFF76DFFDFED1F0A04F17805F0EE481A13
:1044A000B0EE601AB2EE040A2846FFF757FF9FED00
:1044B0001A0A2846FFF75EFF2046FFF7DDFD174C7E
:1044C00001224FF480612046FDF73AFF01224FF4AC
:1044D00000612046FDF734FF01224FF48051204651
:1044E000FDF72EFFDFED0B0A0D4B93ED000A03489D
:1044F000FFF7FCFC0120FEF72BFCF3E73C47002014
:10450000140700206F12833AA69B443BCDCCCC3DD0
:10451000CDCC4C3F00000000DA0F4940001C0240A7
:104520001800002008B5FFF72FFF08BD0346084616
:10453000194609F0EBBB00BF70B5036884B00024D6
:104540009E690394102315460293CDE900446B46FF
:104550001268B0479DF8043003F00603062B03BF32
:10456000009B2B600120204604B070BD0098904253
:104570000CBF06200120704710B5034B03600446B2
:1045800000F0E4FC204610BD6445010810B5054B61
:104590000360044600F0DAFC2046082100F04AF8E7
:1045A000204610BD644501082DE9F041069F089999
:1045B000099E8F42044690461D460CD0294620464F
:1045C00000F0C8FC20B10123376086F80480B37185
:1045D0000020BDE8F081079900F0BCFC0028EDD078
:1045E00086F805800020BDE8F08100BF38B515468B
:1045F0001C4600F0AFFC00B938BD08220623256038
:10460000E260237138BD00BF2DE9F0410646174630
:104610001D460C4600F09EFC48B9032D07D82368C0
:104620003A46314620465B69BDE8F0411847BDE88F
:10463000F08100BF07F0B4BA1EB400F08DF81EBCC4
:10464000FCF782FAF0B50278472A83B00C461D4683
:1046500019D0264E0020336801909B683046984759
:1046600078B1019B1B6801930227236831462046DD
:104670001E6901AA0123B04738BB0746384603B07C
:10468000F0BD0127F1E743784E2BE2D18378552B1B
:10469000DFD1C378432BDCD10379462B1AD0432BCF
:1046A000D7D143792B2BD4D183792B2BD1D1C3797B
:1046B000012BCED850F8206C4FF0000301930ABFB5
:1046C0003046583056F8786CC5E7019B2B60384669
:1046D00003B0F0BD43794F2BBBD18379522BB8D1B6
:1046E000C0790028B5D1024EB5E700BF0C460108DD
:1046F000E045010810B5044600F078F8224612F8AB
:104700002039472B04D0836823BB8260012010BD71
:1047100063784E2BF7D1A378552BF4D1E378432B54
:10472000F1D12379432BEED163792B2BEBD1A379F4
:104730002B2BE8D1E379012BE5D854F8043C013365
:10474000012B44F8043CE1D1836844F8083C8260C2
:10475000012010BD00F044FB08B500F047F8836865
:1047600083B393F82020472A04D00022826003F10B
:10477000200008BD93F821204E2AF6D193F822207C
:10478000552AF2D193F82320432AEED193F824201E
:10479000432AEAD193F825202B2AE6D193F8262044
:1047A0002B2AE2D193F82720012ADED8DA69013AD0
:1047B000DA61002ADBD19969816000229A6103F1F4
:1047C000200008BD00F00CFB704700BF0048704798
:1047D0002C39010810B504210446FFF72BFF2046B1
:1047E00010BD00BF004870474C480020004870478B
:1047F0004C480020502870B51DD0844600F00F00B2
:104800000C2855D8DFE800F0074426071E545454FE
:10481000542A22071E00104650F8046B4EB10CF0CB
:104820007004102C08BF11460E441CF0800F18BFF6
:1048300036681E6070BDD01C20F0030050F8046B79
:104840001E6070BD104650F8086BE7E7104630F95F
:10485000026BE3E7104630F8026BDFE700261046F4
:10486000344610F8015B05F07F0E0EFA04FE15F0D9
:10487000800F46EA0E0604F10704F2D11F2CCDD8B2
:104880006D06CBD54FF0FF3505FA04F42643C6E795
:1048900000261046344610F8015B05F07F0E0EFA34
:1048A00004FE2D0646EA0E0604F10704F3D4B5E72C
:1048B00008F0B2FCFF2808B5034612D003F07003DD
:1048C000302B084613D005D8202B09D1BDE808406D
:1048D00008F09FBC402B06D1BDE8084008F086BC1C
:1048E00003D8002008BD502BFBD008F095FCBDE894
:1048F000084008F08BBC00BFF8B50C4615460646CC
:1049000008B108F073FC286014F8017BFF2F28D150
:104910006860204610F8013BFF2B32D010230024A2
:104920002B75224610F8011B01F07F039340090606
:1049300044EA030402F10702F4D40444EC6010F8E2
:10494000013B6B750024224610F8011B01F07F0328
:1049500093401C430B0602F10702F5D404442C617A
:10496000F8BD31463846FFF7A5FF2B1D014622460C
:104970003846FFF73FFF0446204610F8013BFF2B67
:10498000CCD12B750024D9E72DE9F04F00F00303BB
:1049900095B00024012B0A940F46164600F0A4801F
:1049A000022B0AD13146384608F00AFC002840F0B4
:1049B0009080082015B0BDE8F08F002B40F00182F8
:1049C00010F00804EED10EAB4FF001080293029BE9
:1049D000009300230C22194630460E9707F008FF7B
:1049E000304608F009FC03900028DBD0DDE9022105
:1049F00044EA080330460493FFF77EFF9DF84C30ED
:104A00000693814631461846FFF754FF0DF13408EE
:104A10000023059010901946CDF800800F223046F3
:104A200007F0BEFE0D9BDDF848A023F00103D14541
:104A300003F1FF3533D29DF84DB00E9C002158464E
:104A4000FFF738FF4A4601460BAB5846FFF7D2FE48
:104A5000002181465846FFF72DFF4A4601460CAB20
:104A60005846FFF7C7FE002181465846FFF722FF50
:104A70004A46014643465846FFF7BCFE81460020A1
:104A8000024619F8011B01F07F03934018430B06FF
:104A900002F10702F5D40B9B2344AB421DD94FF022
:104AA0000009CB460123049AD10777D50A9B1C46FF
:104AB00000231946CDF8008030460D2207F070FE25
:104AC000039BC7E90B3B0D9B3B62C7E909490620E5
:104AD00070E7092015B0BDE8F08F0C9A1344AB4283
:104AE00064D8D145AAD3DAE70EAB10F008040293DC
:104AF00002D04FF002086AE700930D6A23460D22A8
:104B00002146304607F04CFE0E9B9D42F1D1029BA0
:104B10000093214623460C2230460E9707F068FE8C
:104B2000D7F830B0D7E90A43BBF1000F3BD003936D
:104B3000A1460DF13408B9F1000FC0F2038103253D
:104B400000231A461946CDF8008030460D9707F02D
:104B50004FFE002319460122CDF8008030460D9407
:104B600007F046FE002319460F22CDF8008030469C
:104B700007F016FE0D9ACDF8008002F00102002326
:104B800042EA0B020D9230460F22194607F030FE22
:104B9000022D60D0072015B0BDE8F08F049A1207EF
:104BA0005DD4012B6BD1384607F01AF80D9B002B12
:104BB0003FF4F8AE0F9A03EB020B002800F0E580FB
:104BC00001380AEB0004BBF1000F3FF4EBAE049B8D
:104BD00013F00803089300F0DC807B4B3B607B4BB9
:104BE0007B60069B079603F00702CDF818B04FF0E4
:104BF000000A09929B4600210A4614F8010B00F0B6
:104C00007F039340050641EA030102F10702F4D451
:104C10001F2A05D8400603D5012393405B42194360
:104C20000025894626462A4616F8010B00F07F0328
:104C300093401D43030602F10702F5D41F2A20D832
:104C400046061ED5012393405B421D4359BB4FF0DE
:104C5000010A2C44CFE73846FFF74CFD9AE7012BB9
:104C600000F0AD80B9F1000FC0F2A5804C460325DD
:104C700066E7049BDB07DDE906B63FF517AF4C4658
:104C800059E781B94FF0010A002DE2D15346DDE921
:104C900006B6002B3FF486AE049BD8073FF582AEE4
:104CA000002402254CE7002910DC6FF040435B1A1A
:104CB0009A0017B1089900292FD0119A52F8233081
:104CC000002BE1D1DDE906B60323ECE6BBF1FF0FD3
:104CD00059D0099A042A74D8DFE802F003731C0340
:104CE00019008B005B42119A05991A4458464346B5
:104CF000FFF780FD0D990029E4D0002FC4D00AAB46
:104D000000223846FFF79EFC0028BDD0DAE7CB0032
:104D10005B42E8E74B005B42E5E7119E56F8231043
:104D20000A9B0D93164421B93CE056F8041F002954
:104D30009FD03144434600223846FFF783FC0028C9
:104D4000F3D0A1E7DDE902213046FFF7D5FD9DF85C
:104D50004C003146FFF7AEFD6FF04042121B054696
:104D6000119850F8223000EB820033B10246002344
:104D700052F8041F01330029FAD1C7E90A35042388
:104D800078633B63DBE60023ADE7BBF1000F83D123
:104D900008E6FB79012B0CBF57F8203C07F15803BC
:104DA0000A931EE71C46049BDD07DDE906B63FF5C6
:104DB0007FAE4C46BFE600F021F806F08BFF00F016
:104DC0000FF808F029FA00BF474E5543464F5200EE
:104DD00008B5804708F020FA06F07CFF08F01CFABE
:104DE00008B5034B1868BFF35B8FFFF7F1FF00BFF7
:104DF0002000002008B58047FFF7F2FF08B5034BFD
:104E00001868BFF35B8FFFF7F5FF00BF1C000020A1
:104E1000024B1868BFF35B8F704700BF2000002073
:104E2000024B1868BFF35B8F704700BF1C00002067
:104E300010B5034B03600446FFF79EFB204610BDF0
:104E40006446010810B5054B03600446FFF794FB68
:104E500020460C21FFF7EEFB204610BD64460108FA
:104E600070B582B00446069E96420D4609D0A068F1
:104E700004680696246A2946A44602B0BDE870403C
:104E8000604719460192009300F064F8DDE90032B2
:104E90000028ECD0062002B070BD00BF2DE9F04F15
:104EA0000D4681B01946DDE90A8BDDE90CA91C46E7
:104EB0000746164600F04EF880B9D04527D0B868AE
:104EC00023460468CDE90CA9CDE90A8BE469324692
:104ED0002946A44601B0BDE8F04F6047002DC9F84F
:104EE000008089F804600CDBA844C24514BF4FF071
:104EF00001084FF0060889F80680002001B0BDE8DF
:104F0000F08F0235F9D1012389F80630F5E75946CB
:104F1000384600F01FF80028D1D089F80560ECE78A
:104F20002DE9F04106460F4614461D46FFF75EFB8D
:104F300048B9B068016822468C692B463946A446B8
:104F4000BDE8F0416047BDE8F08100BF704700BF99
:104F500000207047814211D008B5406803782A2BA1
:104F60000AD049680B782A2B08BF0131FBF738FEBD
:104F7000B0FA80F0400908BD002008BD012070474C
:104F800010B5034B03600446FFF7F6FA204610BD48
:104F9000DC46010810B5054B03600446FFF7ECFA48
:104FA00020461821FFF746FB204610BDDC460108CD
:104FB0002DE9F04F83B00546DDF830A0524591460B
:104FC0000F4698462DD0EB685E1E05EBC305FBB17E
:104FD000EC6814F0020F434639464FEA242212D0FF
:104FE00014F0010404D0F81C0DD0D9F80000825848
:104FF000A868D0F800C0CDF800A0DCF820B04A4482
:10500000D847032808D8013E731CA5F10805DFD155
:10501000012003B0BDE8F08F2043C0B203B0BDE86B
:10502000F08F1946FFF796FF0028CCD00620F0E756
:105030002DE9F04F93B08A461F9C0793A368DDF8D3
:1050400070B00B90DE06099201D58368A3601E9BA9
:105050009B4500F0688107990B98FFF77BFF0028BC
:1050600040F04E81BAF1000FA8BF1E9B4FF0010225
:105070000892099AA4BFA3EB0A0319464FF0000E49
:10508000B8BF0146022342F00102CDE905AECDF8DA
:1050900030E00A920D938A460B9BDF6807F1FF38D8
:1050A000002F00F0828003EBC7074FF00009F9687A
:1050B000A0681190CA07CDE90F994CBFDBF800201A
:1050C000099A4FEA212344BFD3580A9A5B44BAF1A4
:1050D000000F07D09A45089E2CBF00250125B54238
:1050E00000F095808E0705D40599023100F08C8080
:1050F00002F0FD02B868016800931E9B02930FAD99
:105100001D9B01930395CD69079B0599A84763797A
:105110009DF841209DF842600F991343062E63715C
:10512000864600F00A81022E8C4600F00681069D1C
:105130002268002D5CD1002A00F081808A4269D06B
:10514000002900F0A580032BA57938D9D80702D50E
:10515000A068800733D4012D38BF0125012E38BF48
:105160000126EDB2F6B286EA0503DBB2032B40F26C
:105170008380032E40F29580DDF83CC09DF84020EE
:105180002271002206F00203C4F800C00692A67144
:1051900053BBF20728D56379042B2FD008F1FF38D1
:1051A000B8F1FF3FA7F1080781D10C9B33B30D9BEA
:1051B000012B23D001230D93002308936CE7002DCE
:1051C0002ED0002ECFD1032D40F2EE80E8077CD503
:1051D0000B9B9B6899073ED485F00103DBB2032B40
:1051E0004FD9AB07A571D6D5002013B0BDE8F08F1D
:1051F000002AA3D10029A6D1042BCFD1DDF818E0D5
:10520000704613B0BDE8F08F8107C7D070E7012367
:105210000C93C3E722799DF840100A432271BBE743
:10522000032E5AD9F00742D486F00102D2B2032AE3
:10523000A4D80122C4F80090A2710692ACE79DF8B0
:1052400040202160227121B17BB30B9A9268D6076E
:10525000CBD50690A0E7059BDDF83CC0002BC0F243
:1052600090801E9A63449A4216D185F00603DBB201
:10527000032B00F2A28006262E40F6B2032E00F287
:10528000A88001226379C4F80090A271069283E796
:10529000BEF1000F80D056E785F00103DBB2032B8F
:1052A000EFD905F002032E4671E7069076E70B99D9
:1052B00089688907B8D5059B002B70DB1A441E9BB3
:1052C00093420CBF062501254DE785F00103DBB2B3
:1052D000032BD6D9A571002087E70598002834DB79
:1052E0001E9D0244954270D0002E5BD10A18954253
:1052F0009FD19DF84020216006232271A37173E79E
:10530000099BC4F800B0BAF1000F237132DB1E9B79
:10531000D3445B4514BF4FF0010B4FF0060B84F8EC
:1053200006B0002061E71D990B98FFF713FE0028D7
:105330003FF491AE099B637156E79DF840302160C0
:105340002371A67113B0BDE8F08F0599023146D0E4
:105350001E9B07980093036805991D6A1D9BA8472B
:105360000546002E7FF4FFAE03283FF62FAFDDF891
:105370003CC009E01AF1020F7FF436AF0123A3719C
:1053800032E7059B023387D01E9B07980093036882
:1053900005991E6A1D9B6246B0470646E3E6059BDB
:1053A0000233D5D10125DEE6059B002B1BDB059BD7
:1053B00019441E9B8B427FF464AF9DF84020C4F8D3
:1053C00000C006232271A3710EE77EB90623A371E4
:1053D0000AE7002202232260A371012005E7002EC4
:1053E0003FF427AFDEE70233CED14AE70625BAE61F
:1053F0002DE9F04F89B0CDE9021004469146984658
:10540000FFF7F4F8002873D1D8F80830DA06039AC9
:1054100048BF2346D46848BF9B68661E002C49D00D
:10542000039A019302EBC40403F0010200920025E9
:10543000019BE2680495CDE90635009B8DF8145078
:1054400002F002073B4302F0010A2ED0B9F1000F2F
:1054500038D01212BAF1000F02D0D9F800309A58A1
:105460004A44A068016804ABD1F818B00299D84743
:10547000D8B1079B082B27D09DF81430032B04D9F3
:105480001FB923F002038DF81430D8F80C1009B3BB
:10549000D8F80030049A934242D16BB398F80430A4
:1054A0009DF81420134388F80430013E771CA4F1C2
:1054B0000804BDD198F80400003818BF012009B0D5
:1054C000BDE8F08F4A46CCE7BAF1000FD4D0A3680C
:1054D0000793D1E704AB0FCB88E80F0098F80430AE
:1054E000032B05D9980714D5039B9B68D907DCD4F7
:1054F000012009B0BDE8F08F0798082805D00829D9
:1055000003D0FFF727FD0028C8D1022388F8043014
:10551000EEE7DA07ECD5039B9B689B07C5D4E7E76A
:1055200000220223C8F8002088F804300120E0E7B8
:1055300070B53B4B1A7882B0002A41D101241C700F
:1055400006F0E2FC002831D04468364D23782A2B3F
:1055500008BF013400224FF0FF30114601AB01902B
:10556000204606F0BFFA2B683022DB680646012190
:105570002D4808F01FFF019B93B12B682046D96886
:1055800008F00AFD2B682948DB680222012108F097
:1055900011FF019B13B9304607F09CFE06F07CFC1E
:1055A0002B683046D96808F0F7FCEBE71D4B204824
:1055B0001B682D22DB68214608F0FCFE07F02CFE5C
:1055C000184B1C481B681D22DB68012108F0F2FE05
:1055D00007F022FE01290C4619D106F07BFB036877
:1055E0009B6898472B682146DB6804460B221248CB
:1055F00008F0E0FE2B682046D96808F0CDFC2B6847
:105600000A20D96808F056FC06F0A2FBD6E706F09F
:1056100061FB06F09DFBD1E706F09AFBFFF70CF863
:1056200058480020440400206039010894390108DA
:105630009839010840390108C8390108312970B585
:1056400084463CD828290AD9A1F12900082834D851
:10565000DFE800F01A191833181A1A4119000A293C
:105660000ED9A1F10B052F48EDB20124AC4020402A
:1056700088BB14F47F1F07D12B48204010B970BDA0
:10568000042916D8CAB1C3B1DCE90540844214DA52
:10569000DCF8105004EB840E05EB8E00013400267C
:1056A000C0E90166CCF8144005F82E10C0E90323C8
:1056B00070BDA1F1090001280DD9002070BD4F294E
:1056C0000CD83329F9D9A1F134051848EDB20124D9
:1056D000AC402040F0B1002AD6D1EEE7A1F1520053
:1056E0000928D1D801A454F820F000BFD7560008EB
:1056F000875600088756000885560008D7560008C8
:10570000D756000889560008D7560008D756000813
:10571000D7560008064820400028B3D14E29B3D000
:1057200070BD00BFFE1F802F010040000711C701A0
:10573000F82E000AF0B5C26811786E29864625D089
:105740003039CBB2092B2BD80026164D00206FF034
:10575000004402E0B0EBD30F15DC0132CEF80C2090
:105760001378303B5FFA83FC00EB800001EB4000D4
:10577000BCF1090F1946A4EB0303A5FB0373E9D998
:1057800006B14042F0BD4FF0FF30F0BD531CC36086
:1057900051783039CAB2092A02D81A460126D4E70C
:1057A0000020F0BDCDCCCCCC10B5044629B9C368DF
:1057B0001A786AB15A1CC260197868290CD0762907
:1057C00006D12046FFF7B6FFE3681A785F2A01D0BA
:1057D000002010BD0133E3602046FFF7ABFFE36814
:1057E0001A785F2AF4D10133E360012010BD00BFB5
:1057F000C3681A785F2A01D00120704710B55A1C7F
:10580000C2605A785F2A044604D0FFF793FFC04372
:10581000C00F10BD0233C360FFF78CFF002807DB09
:10582000092801DC012010BDE3681A785F2A01D045
:10583000002010BD0133E360F4E700BF002900F051
:10584000918038B505460C46A268012A35DCD5F8AA
:105850001C01B0F5806F30DC23780132412BA2604F
:105860002CD8222B18D8013BDAB2212A25D8212B9B
:1058700023D8DFE803F05151517022221F1F5151EC
:105880005151515151515151515151515122515137
:105890005151515151515151A3F1230C32495FFAE9
:1058A0008CFC012202FA0CF21140A9BB920748D1EC
:1058B000332B02D12469002CC6D138BD443BDAB267
:1058C000112AFAD8112BF8D801A252F823F000BF00
:1058D000195900083B5900083B5900083B5900087A
:1058E0003B590008BB58000819590008195900080D
:1058F00019590008195900081959000819590008C0
:105900001959000819590008BB580008BB5800086D
:10591000BB5800083B590008E1680130C5F81C017C
:105920002846FFF78BFF21692846FFF787FFD5F848
:105930001C31013BC5F81C3138BDE468002C83D113
:10594000BBE7E1680B78052BE7D1D5F83831013397
:10595000C5F83831E1E7D5F84431E1680133C5F8DD
:105960004431DAE7704700BFEC7DFE7F20B909E0E3
:1059700039B10069013930B103782F2BF8D00020FC
:105980007047C068704770472DE9F041144652686F
:10599000A568D4F80C804B1C1344AB4282B00E4671
:1059A000074614D8B8F1000F0ED16368206832465C
:1059B00018443946FBF7D4FAD4E90032334403F8EB
:1059C000028063683344636002B0BDE8F081B8F1DF
:1059D000000FF9D17DB16D00AB42FCD8206829469B
:1059E00007F03EFF60B1D4F80C802060A560B8F1EC
:1059F000000FDAD0E8E7022B4FF00205EBD8EDE715
:105A00000190206807F066FC019B0122C4E9003385
:105A1000C4E90232D8E700BF03784B2B17D00ED869
:105A2000442B16D14078A0F17703012B0FD900F059
:105A3000DF00A0F14F00B0FA80F040097047562B0C
:105A400005D0A3F17200B0FA80F040097047012040
:105A500070470020704700BFD0F80031FF2B70B5B1
:105A600004460D4606D05A1CC4F80021E55484F8BB
:105A7000045170BD0026194680F8FF60D0E942321B
:105A80009847D4F82811012233461144C4F828114C
:105A9000C4F80021E55484F8045170BDD0F81031E9
:105AA0008BB15A68CB681069002B0BDB20B906E07C
:105AB0003BB10069013B10B102782F2AF8D00020D9
:105AC0007047C06870470123C0F81831F7E700BF7E
:105AD000002941D038B505460C462378332B1DD814
:105AE000332B24D8DFE803F02B232323232D2B286B
:105AF0002823232323232323232323232323232371
:105B00002B23232323232323232323232323232B55
